{
  "_format": "hh-sol-artifact-1",
  "contractName": "LendingAndBorrowing",
  "sourceName": "contracts/Controller.sol",
  "abi": [
    {
      "inputs": [
        {
          "internalType": "address",
          "name": "_aToken",
          "type": "address"
        }
      ],
      "stateMutability": "nonpayable",
      "type": "constructor"
    },
    {
      "anonymous": false,
      "inputs": [
        {
          "indexed": false,
          "internalType": "address",
          "name": "sender",
          "type": "address"
        },
        {
          "indexed": false,
          "internalType": "uint256",
          "name": "amountUsd",
          "type": "uint256"
        },
        {
          "indexed": false,
          "internalType": "uint256",
          "name": "totalAmountAvailableForBorrowUsd",
          "type": "uint256"
        },
        {
          "indexed": false,
          "internalType": "bool",
          "name": "userPresent",
          "type": "bool"
        },
        {
          "indexed": false,
          "internalType": "int256",
          "name": "userIndex",
          "type": "int256"
        },
        {
          "indexed": false,
          "internalType": "address[]",
          "name": "borrowers",
          "type": "address[]"
        },
        {
          "indexed": false,
          "internalType": "uint256",
          "name": "currentUserTokenBorrowedAmount",
          "type": "uint256"
        }
      ],
      "name": "Borrow",
      "type": "event"
    },
    {
      "anonymous": false,
      "inputs": [
        {
          "indexed": true,
          "internalType": "address",
          "name": "account",
          "type": "address"
        },
        {
          "indexed": true,
          "internalType": "address",
          "name": "liquidator",
          "type": "address"
        },
        {
          "indexed": false,
          "internalType": "uint256",
          "name": "collateralLiquidated",
          "type": "uint256"
        },
        {
          "indexed": false,
          "internalType": "uint256",
          "name": "lastCollateralRatio",
          "type": "uint256"
        }
      ],
      "name": "Liquidation",
      "type": "event"
    },
    {
      "anonymous": false,
      "inputs": [
        {
          "indexed": true,
          "internalType": "address",
          "name": "previousOwner",
          "type": "address"
        },
        {
          "indexed": true,
          "internalType": "address",
          "name": "newOwner",
          "type": "address"
        }
      ],
      "name": "OwnershipTransferred",
      "type": "event"
    },
    {
      "anonymous": false,
      "inputs": [
        {
          "indexed": false,
          "internalType": "address",
          "name": "sender",
          "type": "address"
        },
        {
          "indexed": false,
          "internalType": "int256",
          "name": "index",
          "type": "int256"
        },
        {
          "indexed": false,
          "internalType": "uint256",
          "name": "tokenAmountBorrowed",
          "type": "uint256"
        },
        {
          "indexed": false,
          "internalType": "uint256",
          "name": "totalTokenAmountToCollectFromUser",
          "type": "uint256"
        },
        {
          "indexed": false,
          "internalType": "address[]",
          "name": "borrowers",
          "type": "address[]"
        }
      ],
      "name": "PayDebt",
      "type": "event"
    },
    {
      "anonymous": false,
      "inputs": [
        {
          "indexed": false,
          "internalType": "address",
          "name": "sender",
          "type": "address"
        },
        {
          "indexed": false,
          "internalType": "address[]",
          "name": "lenders",
          "type": "address[]"
        },
        {
          "indexed": false,
          "internalType": "uint256",
          "name": "currentUserTokenLentAmount",
          "type": "uint256"
        }
      ],
      "name": "Supply",
      "type": "event"
    },
    {
      "anonymous": false,
      "inputs": [
        {
          "indexed": false,
          "internalType": "address",
          "name": "sender",
          "type": "address"
        },
        {
          "indexed": false,
          "internalType": "uint256",
          "name": "amount",
          "type": "uint256"
        },
        {
          "indexed": false,
          "internalType": "uint256",
          "name": "tokenToWithdrawUsd",
          "type": "uint256"
        },
        {
          "indexed": false,
          "internalType": "uint256",
          "name": "availableToWithdraw",
          "type": "uint256"
        },
        {
          "indexed": false,
          "internalType": "uint256",
          "name": "totalAmountLentUsd",
          "type": "uint256"
        },
        {
          "indexed": false,
          "internalType": "uint256",
          "name": "aTokenToRemove",
          "type": "uint256"
        }
      ],
      "name": "Withdraw",
      "type": "event"
    },
    {
      "inputs": [],
      "name": "ETHAddress",
      "outputs": [
        {
          "internalType": "address",
          "name": "",
          "type": "address"
        }
      ],
      "stateMutability": "view",
      "type": "function"
    },
    {
      "inputs": [],
      "name": "LIQUIDATION_THRESHOLD",
      "outputs": [
        {
          "internalType": "uint256",
          "name": "",
          "type": "uint256"
        }
      ],
      "stateMutability": "view",
      "type": "function"
    },
    {
      "inputs": [],
      "name": "aToken",
      "outputs": [
        {
          "internalType": "contract IERC20",
          "name": "",
          "type": "address"
        }
      ],
      "stateMutability": "view",
      "type": "function"
    },
    {
      "inputs": [
        {
          "internalType": "address",
          "name": "_tokenAddress",
          "type": "address"
        },
        {
          "internalType": "uint256",
          "name": "_LTV",
          "type": "uint256"
        },
        {
          "internalType": "uint256",
          "name": "_interestRate",
          "type": "uint256"
        },
        {
          "internalType": "address",
          "name": "_tokenToUsdPriceFeed",
          "type": "address"
        },
        {
          "internalType": "bool",
          "name": "_supported",
          "type": "bool"
        }
      ],
      "name": "addSupportedToken",
      "outputs": [],
      "stateMutability": "nonpayable",
      "type": "function"
    },
    {
      "inputs": [
        {
          "internalType": "address",
          "name": "_tokenAddress",
          "type": "address"
        },
        {
          "internalType": "uint256",
          "name": "_amount",
          "type": "uint256"
        }
      ],
      "name": "borrow",
      "outputs": [],
      "stateMutability": "nonpayable",
      "type": "function"
    },
    {
      "inputs": [
        {
          "internalType": "uint256",
          "name": "",
          "type": "uint256"
        }
      ],
      "name": "borrowers",
      "outputs": [
        {
          "internalType": "address",
          "name": "",
          "type": "address"
        }
      ],
      "stateMutability": "view",
      "type": "function"
    },
    {
      "inputs": [],
      "name": "getAllBorrowers",
      "outputs": [
        {
          "internalType": "address[]",
          "name": "",
          "type": "address[]"
        }
      ],
      "stateMutability": "view",
      "type": "function"
    },
    {
      "inputs": [],
      "name": "getAllLenders",
      "outputs": [
        {
          "internalType": "address[]",
          "name": "",
          "type": "address[]"
        }
      ],
      "stateMutability": "view",
      "type": "function"
    },
    {
      "inputs": [],
      "name": "getAllSupportedTokens",
      "outputs": [
        {
          "internalType": "address[]",
          "name": "",
          "type": "address[]"
        }
      ],
      "stateMutability": "view",
      "type": "function"
    },
    {
      "inputs": [
        {
          "internalType": "address",
          "name": "_user",
          "type": "address"
        }
      ],
      "name": "getRemainingCollateralUsd",
      "outputs": [
        {
          "internalType": "uint256",
          "name": "",
          "type": "uint256"
        }
      ],
      "stateMutability": "view",
      "type": "function"
    },
    {
      "inputs": [
        {
          "internalType": "address",
          "name": "user",
          "type": "address"
        }
      ],
      "name": "getTokenAvailableToWithdraw",
      "outputs": [
        {
          "internalType": "uint256",
          "name": "",
          "type": "uint256"
        }
      ],
      "stateMutability": "view",
      "type": "function"
    },
    {
      "inputs": [
        {
          "internalType": "uint256",
          "name": "_amount",
          "type": "uint256"
        },
        {
          "internalType": "address",
          "name": "_tokenAddress",
          "type": "address"
        }
      ],
      "name": "getTokenPriceInUsd",
      "outputs": [
        {
          "internalType": "uint256",
          "name": "",
          "type": "uint256"
        }
      ],
      "stateMutability": "view",
      "type": "function"
    },
    {
      "inputs": [
        {
          "internalType": "address",
          "name": "_user",
          "type": "address"
        }
      ],
      "name": "getTotalAmountAvailableToBorrowUsd",
      "outputs": [
        {
          "internalType": "uint256",
          "name": "",
          "type": "uint256"
        }
      ],
      "stateMutability": "view",
      "type": "function"
    },
    {
      "inputs": [
        {
          "internalType": "address",
          "name": "_user",
          "type": "address"
        }
      ],
      "name": "getTotalAmountBorrowedUsd",
      "outputs": [
        {
          "internalType": "uint256",
          "name": "",
          "type": "uint256"
        }
      ],
      "stateMutability": "view",
      "type": "function"
    },
    {
      "inputs": [
        {
          "internalType": "address",
          "name": "_user",
          "type": "address"
        }
      ],
      "name": "getTotalAmountLentUsd",
      "outputs": [
        {
          "internalType": "uint256",
          "name": "",
          "type": "uint256"
        }
      ],
      "stateMutability": "view",
      "type": "function"
    },
    {
      "inputs": [
        {
          "internalType": "address",
          "name": "_tokenAddres",
          "type": "address"
        }
      ],
      "name": "getTotalTokenBorrowed",
      "outputs": [
        {
          "internalType": "uint256",
          "name": "",
          "type": "uint256"
        }
      ],
      "stateMutability": "view",
      "type": "function"
    },
    {
      "inputs": [
        {
          "internalType": "address",
          "name": "_tokenAddres",
          "type": "address"
        }
      ],
      "name": "getTotalTokenSupplied",
      "outputs": [
        {
          "internalType": "uint256",
          "name": "",
          "type": "uint256"
        }
      ],
      "stateMutability": "view",
      "type": "function"
    },
    {
      "inputs": [
        {
          "internalType": "address",
          "name": "_currentUser",
          "type": "address"
        },
        {
          "internalType": "address",
          "name": "_tokenAddress",
          "type": "address"
        },
        {
          "internalType": "uint256",
          "name": "_noOfTokenslentOrBorrowed",
          "type": "uint256"
        },
        {
          "internalType": "string",
          "name": "_tokensLentOrBorrowed",
          "type": "string"
        }
      ],
      "name": "hasLentOrBorrowedToken",
      "outputs": [
        {
          "internalType": "bool",
          "name": "",
          "type": "bool"
        }
      ],
      "stateMutability": "view",
      "type": "function"
    },
    {
      "inputs": [
        {
          "internalType": "address",
          "name": "_tokenAddress",
          "type": "address"
        },
        {
          "internalType": "uint256",
          "name": "_tokenBorrowed",
          "type": "uint256"
        }
      ],
      "name": "interest",
      "outputs": [
        {
          "internalType": "uint256",
          "name": "",
          "type": "uint256"
        }
      ],
      "stateMutability": "view",
      "type": "function"
    },
    {
      "inputs": [
        {
          "internalType": "address",
          "name": "_tokenAddress",
          "type": "address"
        },
        {
          "internalType": "uint256",
          "name": "_amount",
          "type": "uint256"
        }
      ],
      "name": "lend",
      "outputs": [],
      "stateMutability": "payable",
      "type": "function"
    },
    {
      "inputs": [
        {
          "internalType": "uint256",
          "name": "",
          "type": "uint256"
        }
      ],
      "name": "lenders",
      "outputs": [
        {
          "internalType": "address",
          "name": "",
          "type": "address"
        }
      ],
      "stateMutability": "view",
      "type": "function"
    },
    {
      "inputs": [
        {
          "internalType": "address",
          "name": "_user",
          "type": "address"
        },
        {
          "internalType": "address",
          "name": "_token",
          "type": "address"
        },
        {
          "internalType": "uint256",
          "name": "_amountToLiquidate",
          "type": "uint256"
        }
      ],
      "name": "liquidate",
      "outputs": [],
      "stateMutability": "nonpayable",
      "type": "function"
    },
    {
      "inputs": [],
      "name": "noOfTokensBorrowed",
      "outputs": [
        {
          "internalType": "uint256",
          "name": "",
          "type": "uint256"
        }
      ],
      "stateMutability": "view",
      "type": "function"
    },
    {
      "inputs": [],
      "name": "noOfTokensLent",
      "outputs": [
        {
          "internalType": "uint256",
          "name": "",
          "type": "uint256"
        }
      ],
      "stateMutability": "view",
      "type": "function"
    },
    {
      "inputs": [],
      "name": "owner",
      "outputs": [
        {
          "internalType": "address",
          "name": "",
          "type": "address"
        }
      ],
      "stateMutability": "view",
      "type": "function"
    },
    {
      "inputs": [
        {
          "internalType": "address",
          "name": "_tokenAddress",
          "type": "address"
        },
        {
          "internalType": "uint256",
          "name": "_amount",
          "type": "uint256"
        }
      ],
      "name": "payDebt",
      "outputs": [],
      "stateMutability": "payable",
      "type": "function"
    },
    {
      "inputs": [],
      "name": "renounceOwnership",
      "outputs": [],
      "stateMutability": "nonpayable",
      "type": "function"
    },
    {
      "inputs": [
        {
          "internalType": "uint256",
          "name": "",
          "type": "uint256"
        }
      ],
      "name": "supportedTokenList",
      "outputs": [
        {
          "internalType": "address",
          "name": "",
          "type": "address"
        }
      ],
      "stateMutability": "view",
      "type": "function"
    },
    {
      "inputs": [
        {
          "internalType": "address",
          "name": "",
          "type": "address"
        }
      ],
      "name": "supportedTokens",
      "outputs": [
        {
          "internalType": "address",
          "name": "tokenAddress",
          "type": "address"
        },
        {
          "internalType": "uint256",
          "name": "LTV",
          "type": "uint256"
        },
        {
          "internalType": "uint256",
          "name": "interestRate",
          "type": "uint256"
        },
        {
          "internalType": "address",
          "name": "tokenUsdPriceFeed",
          "type": "address"
        },
        {
          "internalType": "bool",
          "name": "supported",
          "type": "bool"
        }
      ],
      "stateMutability": "view",
      "type": "function"
    },
    {
      "inputs": [
        {
          "internalType": "address",
          "name": "_token",
          "type": "address"
        }
      ],
      "name": "tokenToUsd",
      "outputs": [
        {
          "internalType": "uint256",
          "name": "",
          "type": "uint256"
        },
        {
          "internalType": "uint256",
          "name": "",
          "type": "uint256"
        }
      ],
      "stateMutability": "view",
      "type": "function"
    },
    {
      "inputs": [
        {
          "internalType": "uint256",
          "name": "",
          "type": "uint256"
        },
        {
          "internalType": "address",
          "name": "",
          "type": "address"
        }
      ],
      "name": "tokensBorrowed",
      "outputs": [
        {
          "internalType": "address",
          "name": "",
          "type": "address"
        }
      ],
      "stateMutability": "view",
      "type": "function"
    },
    {
      "inputs": [
        {
          "internalType": "address",
          "name": "",
          "type": "address"
        },
        {
          "internalType": "address",
          "name": "",
          "type": "address"
        }
      ],
      "name": "tokensBorrowedAmount",
      "outputs": [
        {
          "internalType": "uint256",
          "name": "",
          "type": "uint256"
        }
      ],
      "stateMutability": "view",
      "type": "function"
    },
    {
      "inputs": [
        {
          "internalType": "uint256",
          "name": "",
          "type": "uint256"
        },
        {
          "internalType": "address",
          "name": "",
          "type": "address"
        }
      ],
      "name": "tokensLent",
      "outputs": [
        {
          "internalType": "address",
          "name": "",
          "type": "address"
        }
      ],
      "stateMutability": "view",
      "type": "function"
    },
    {
      "inputs": [
        {
          "internalType": "address",
          "name": "",
          "type": "address"
        },
        {
          "internalType": "address",
          "name": "",
          "type": "address"
        }
      ],
      "name": "tokensLentAmount",
      "outputs": [
        {
          "internalType": "uint256",
          "name": "",
          "type": "uint256"
        }
      ],
      "stateMutability": "view",
      "type": "function"
    },
    {
      "inputs": [
        {
          "internalType": "address",
          "name": "newOwner",
          "type": "address"
        }
      ],
      "name": "transferOwnership",
      "outputs": [],
      "stateMutability": "nonpayable",
      "type": "function"
    },
    {
      "inputs": [
        {
          "internalType": "uint256",
          "name": "_newThreshold",
          "type": "uint256"
        }
      ],
      "name": "updateLiquidationThreshold",
      "outputs": [],
      "stateMutability": "nonpayable",
      "type": "function"
    },
    {
      "inputs": [
        {
          "internalType": "address",
          "name": "_tokenAddress",
          "type": "address"
        },
        {
          "internalType": "uint256",
          "name": "_amount",
          "type": "uint256"
        }
      ],
      "name": "withdraw",
      "outputs": [],
      "stateMutability": "nonpayable",
      "type": "function"
    }
  ],
  "bytecode": "0x6080604052611f4060015573eeeeeeeeeeeeeeeeeeeeeeeeeeeeeeeeeeeeeeee600560006101000a81548173ffffffffffffffffffffffffffffffffffffffff021916908373ffffffffffffffffffffffffffffffffffffffff1602179055506000600c556000600d553480156200007657600080fd5b506040516200699a3803806200699a83398181016040528101906200009c9190620001e7565b620000bc620000b06200010460201b60201c565b6200010c60201b60201c565b80600460006101000a81548173ffffffffffffffffffffffffffffffffffffffff021916908373ffffffffffffffffffffffffffffffffffffffff1602179055505062000261565b600033905090565b60008060009054906101000a900473ffffffffffffffffffffffffffffffffffffffff169050816000806101000a81548173ffffffffffffffffffffffffffffffffffffffff021916908373ffffffffffffffffffffffffffffffffffffffff1602179055508173ffffffffffffffffffffffffffffffffffffffff168173ffffffffffffffffffffffffffffffffffffffff167f8be0079c531659141344cd1fd0a4f28419497f9722a3daafe3b4186f6b6457e060405160405180910390a35050565b600081519050620001e18162000247565b92915050565b600060208284031215620001fa57600080fd5b60006200020a84828501620001d0565b91505092915050565b6000620002208262000227565b9050919050565b600073ffffffffffffffffffffffffffffffffffffffff82169050919050565b620002528162000213565b81146200025e57600080fd5b50565b61672980620002716000396000f3fe60806040526004361061021a5760003560e01c80638592c00d11610123578063a8b74152116100ab578063cd9274091161006f578063cd92740914610890578063d3b5be1a146108cd578063da228a9b146108f6578063f2fde38b14610921578063f3fef3a31461094a5761021a565b8063a8b7415214610771578063ab56ee66146107ae578063b13e95db146107eb578063b9f09bb814610828578063ba3be799146108535761021a565b8063929eea21116100f2578063929eea2114610685578063a0c1f15e146106c2578063a1666b54146106ed578063a2fb342d14610718578063a7af0cc7146107345761021a565b80638592c00d146105c9578063871a4a4f146106065780638da5cb5b1461062f57806390a8ae9b1461065a5761021a565b80634fa9f5a4116101a6578063715018a611610175578063715018a6146104bd57806374296f7a146104d457806374fd0ce0146105125780637924d93f1461054f5780637c0bb9341461058c5761021a565b80634fa9f5a4146103d7578063541d8338146104145780636352b5681461043f57806368c4ac261461047c5761021a565b806326c01303116101ed57806326c01303146102e057806327e8e184146103095780632b60c8221461034657806332abcdbe146103835780634b8a3529146103ae5761021a565b80630107e4721461021f57806306254c6a1461024a57806311f4f5d3146102875780631818dd0b146102c4575b600080fd5b34801561022b57600080fd5b50610234610973565b6040516102419190615ae1565b60405180910390f35b34801561025657600080fd5b50610271600480360381019061026c9190615075565b610a01565b60405161027e9190615d99565b60405180910390f35b34801561029357600080fd5b506102ae60048036038101906102a991906151a4565b610b32565b6040516102bb9190615d99565b60405180910390f35b6102de60048036038101906102d991906151a4565b610b97565b005b3480156102ec57600080fd5b50610307600480360381019061030291906150da565b6111ec565b005b34801561031557600080fd5b50610330600480360381019061032b919061509e565b611687565b60405161033d9190615d99565b60405180910390f35b34801561035257600080fd5b5061036d60048036038101906103689190615280565b6116ac565b60405161037a91906158a4565b60405180910390f35b34801561038f57600080fd5b506103986116eb565b6040516103a59190615ae1565b60405180910390f35b3480156103ba57600080fd5b506103d560048036038101906103d091906151a4565b611779565b005b3480156103e357600080fd5b506103fe60048036038101906103f99190615129565b611e41565b60405161040b9190615b03565b60405180910390f35b34801561042057600080fd5b506104296120b0565b6040516104369190615d99565b60405180910390f35b34801561044b57600080fd5b5061046660048036038101906104619190615075565b6120b6565b6040516104739190615d99565b60405180910390f35b34801561048857600080fd5b506104a3600480360381019061049e9190615075565b612113565b6040516104b49594939291906159b7565b60405180910390f35b3480156104c957600080fd5b506104d2612196565b005b3480156104e057600080fd5b506104fb60048036038101906104f69190615075565b61221e565b604051610509929190615db4565b60405180910390f35b34801561051e57600080fd5b50610539600480360381019061053491906152d2565b6123a7565b60405161054691906158a4565b60405180910390f35b34801561055b57600080fd5b5061057660048036038101906105719190615280565b6123e9565b60405161058391906158a4565b60405180910390f35b34801561059857600080fd5b506105b360048036038101906105ae9190615075565b612428565b6040516105c09190615d99565b60405180910390f35b3480156105d557600080fd5b506105f060048036038101906105eb9190615075565b6125f7565b6040516105fd9190615d99565b60405180910390f35b34801561061257600080fd5b5061062d600480360381019061062891906151e0565b61276c565b005b34801561063b57600080fd5b50610644612d4a565b60405161065191906158a4565b60405180910390f35b34801561066657600080fd5b5061066f612d73565b60405161067c9190615d99565b60405180910390f35b34801561069157600080fd5b506106ac60048036038101906106a79190615280565b612d79565b6040516106b991906158a4565b60405180910390f35b3480156106ce57600080fd5b506106d7612db8565b6040516106e49190615b1e565b60405180910390f35b3480156106f957600080fd5b50610702612dde565b60405161070f9190615ae1565b60405180910390f35b610732600480360381019061072d91906151a4565b612e6c565b005b34801561074057600080fd5b5061075b60048036038101906107569190615075565b613457565b6040516107689190615d99565b60405180910390f35b34801561077d57600080fd5b506107986004803603810190610793919061509e565b6136ac565b6040516107a59190615d99565b60405180910390f35b3480156107ba57600080fd5b506107d560048036038101906107d09190615075565b6136d1565b6040516107e29190615d99565b60405180910390f35b3480156107f757600080fd5b50610812600480360381019061080d9190615075565b613802565b60405161081f9190615d99565b60405180910390f35b34801561083457600080fd5b5061083d613ad9565b60405161084a9190615d99565b60405180910390f35b34801561085f57600080fd5b5061087a600480360381019061087591906152d2565b613adf565b6040516108879190615d99565b60405180910390f35b34801561089c57600080fd5b506108b760048036038101906108b291906152d2565b613b2c565b6040516108c491906158a4565b60405180910390f35b3480156108d957600080fd5b506108f460048036038101906108ef9190615280565b613b6e565b005b34801561090257600080fd5b5061090b613c37565b60405161091891906158a4565b60405180910390f35b34801561092d57600080fd5b5061094860048036038101906109439190615075565b613c5d565b005b34801561095657600080fd5b50610971600480360381019061096c91906151a4565b613d55565b005b606060028054806020026020016040519081016040528092919081815260200182805480156109f757602002820191906000526020600020905b8160009054906101000a900473ffffffffffffffffffffffffffffffffffffffff1673ffffffffffffffffffffffffffffffffffffffff16815260200190600101908083116109ad575b5050505050905090565b6000806000905060006006805490501115610b295760005b600680549050811015610b2757600860008573ffffffffffffffffffffffffffffffffffffffff1673ffffffffffffffffffffffffffffffffffffffff168152602001908152602001600020600060068381548110610aa1577f4e487b7100000000000000000000000000000000000000000000000000000000600052603260045260246000fd5b9060005260206000200160009054906101000a900473ffffffffffffffffffffffffffffffffffffffff1673ffffffffffffffffffffffffffffffffffffffff1673ffffffffffffffffffffffffffffffffffffffff1681526020019081526020016000205482610b129190615ec0565b91508080610b1f9061611b565b915050610a19565b505b80915050919050565b6000612710600360008573ffffffffffffffffffffffffffffffffffffffff1673ffffffffffffffffffffffffffffffffffffffff1681526020019081526020016000206002015483610b859190615f47565b610b8f9190615f16565b905092915050565b600360008373ffffffffffffffffffffffffffffffffffffffff1673ffffffffffffffffffffffffffffffffffffffff16815260200190815260200160002060030160149054906101000a900460ff16610c26576040517f08c379a0000000000000000000000000000000000000000000000000000000008152600401610c1d90615d19565b60405180910390fd5b6000600560009054906101000a900473ffffffffffffffffffffffffffffffffffffffff1673ffffffffffffffffffffffffffffffffffffffff168373ffffffffffffffffffffffffffffffffffffffff1614610c8557819050610c89565b3490505b60008111610ccc576040517f08c379a0000000000000000000000000000000000000000000000000000000008152600401610cc390615c59565b60405180910390fd5b6000610d7d6007805480602002602001604051908101604052809291908181526020018280548015610d5357602002820191906000526020600020905b8160009054906101000a900473ffffffffffffffffffffffffffffffffffffffff1673ffffffffffffffffffffffffffffffffffffffff1681526020019060010190808311610d09575b50505050503373ffffffffffffffffffffffffffffffffffffffff1661475c90919063ffffffff16565b90506000811215610dc3576040517f08c379a0000000000000000000000000000000000000000000000000000000008152600401610dba90615b59565b60405180910390fd5b6000600960008673ffffffffffffffffffffffffffffffffffffffff1673ffffffffffffffffffffffffffffffffffffffff16815260200190815260200160002060003373ffffffffffffffffffffffffffffffffffffffff1673ffffffffffffffffffffffffffffffffffffffff16815260200190815260200160002054905060008111610e87576040517f08c379a0000000000000000000000000000000000000000000000000000000008152600401610e7e90615c39565b60405180910390fd5b600560009054906101000a900473ffffffffffffffffffffffffffffffffffffffff1673ffffffffffffffffffffffffffffffffffffffff168573ffffffffffffffffffffffffffffffffffffffff1614610f875760008590508073ffffffffffffffffffffffffffffffffffffffff166323b872dd3330610f098a87610b32565b89610f149190615ec0565b6040518463ffffffff1660e01b8152600401610f32939291906158bf565b602060405180830381600087803b158015610f4c57600080fd5b505af1158015610f60573d6000803e3d6000fd5b505050506040513d601f19601f82011682018060405250810190610f849190615257565b50505b83600960008773ffffffffffffffffffffffffffffffffffffffff1673ffffffffffffffffffffffffffffffffffffffff16815260200190815260200160002060003373ffffffffffffffffffffffffffffffffffffffff1673ffffffffffffffffffffffffffffffffffffffff16815260200190815260200160002060008282546110139190615fa1565b925050819055506000611025336125f7565b1415611191576007600160078054905061103f9190615fa1565b81548110611076577f4e487b7100000000000000000000000000000000000000000000000000000000600052603260045260246000fd5b9060005260206000200160009054906101000a900473ffffffffffffffffffffffffffffffffffffffff16600783815481106110db577f4e487b7100000000000000000000000000000000000000000000000000000000600052603260045260246000fd5b9060005260206000200160006101000a81548173ffffffffffffffffffffffffffffffffffffffff021916908373ffffffffffffffffffffffffffffffffffffffff160217905550600780548061115b577f4e487b7100000000000000000000000000000000000000000000000000000000600052603160045260246000fd5b6001900381819060005260206000200160006101000a81549073ffffffffffffffffffffffffffffffffffffffff021916905590555b7ff17f5805b2095d17ffe834aff3fc2eeff114bfbc250e98f248783f8d34d400423383836111bf8986610b32565b886111ca9190615ec0565b60076040516111dd959493929190615934565b60405180910390a15050505050565b6000600860008473ffffffffffffffffffffffffffffffffffffffff1673ffffffffffffffffffffffffffffffffffffffff16815260200190815260200160002060008573ffffffffffffffffffffffffffffffffffffffff1673ffffffffffffffffffffffffffffffffffffffff1681526020019081526020016000205490506000600960008573ffffffffffffffffffffffffffffffffffffffff1673ffffffffffffffffffffffffffffffffffffffff16815260200190815260200160002060008673ffffffffffffffffffffffffffffffffffffffff1673ffffffffffffffffffffffffffffffffffffffff16815260200190815260200160002054905060006112fa8386613adf565b905060006113088387613adf565b905060008211801561131a5750600081115b611359576040517f08c379a000000000000000000000000000000000000000000000000000000000815260040161135090615d79565b60405180910390fd5b6000816127106001548561136d9190615f47565b6113779190615f16565b6113819190615f16565b905060015481106113c7576040517f08c379a00000000000000000000000000000000000000000000000000000000081526004016113be90615cb9565b60405180910390fd5b60006113d38789613adf565b9050600460009054906101000a900473ffffffffffffffffffffffffffffffffffffffff1673ffffffffffffffffffffffffffffffffffffffff166340c10f1933836040518363ffffffff1660e01b815260040161143292919061598e565b600060405180830381600087803b15801561144c57600080fd5b505af1158015611460573d6000803e3d6000fd5b50505050600560009054906101000a900473ffffffffffffffffffffffffffffffffffffffff1673ffffffffffffffffffffffffffffffffffffffff168873ffffffffffffffffffffffffffffffffffffffff161461161557868873ffffffffffffffffffffffffffffffffffffffff166370a08231336040518263ffffffff1660e01b81526004016114f391906158a4565b60206040518083038186803b15801561150b57600080fd5b505afa15801561151f573d6000803e3d6000fd5b505050506040513d601f19601f8201168201806040525081019061154391906152a9565b1015611584576040517f08c379a000000000000000000000000000000000000000000000000000000000815260040161157b90615bf9565b60405180910390fd5b8773ffffffffffffffffffffffffffffffffffffffff166323b872dd33308a6040518463ffffffff1660e01b81526004016115c1939291906158bf565b602060405180830381600087803b1580156115db57600080fd5b505af11580156115ef573d6000803e3d6000fd5b505050506040513d601f19601f820116820180604052508101906116139190615257565b505b3373ffffffffffffffffffffffffffffffffffffffff168973ffffffffffffffffffffffffffffffffffffffff167f4ecae3269f800df64b16cb9f6f8b0b507018888521d1cff0841823e44bc0b00d8885604051611674929190615db4565b60405180910390a3505050505050505050565b6008602052816000526040600020602052806000526040600020600091509150505481565b600281815481106116bc57600080fd5b906000526020600020016000915054906101000a900473ffffffffffffffffffffffffffffffffffffffff1681565b6060600780548060200260200160405190810160405280929190818152602001828054801561176f57602002820191906000526020600020905b8160009054906101000a900473ffffffffffffffffffffffffffffffffffffffff1673ffffffffffffffffffffffffffffffffffffffff1681526020019060010190808311611725575b5050505050905090565b600360008373ffffffffffffffffffffffffffffffffffffffff1673ffffffffffffffffffffffffffffffffffffffff16815260200190815260200160002060030160149054906101000a900460ff16611808576040517f08c379a00000000000000000000000000000000000000000000000000000000081526004016117ff90615d19565b60405180910390fd5b6000811161184b576040517f08c379a000000000000000000000000000000000000000000000000000000000815260040161184290615c59565b60405180910390fd5b600061185633613802565b905060006118648385613adf565b9050818111156118a9576040517f08c379a00000000000000000000000000000000000000000000000000000000081526004016118a090615d59565b60405180910390fd5b600560009054906101000a900473ffffffffffffffffffffffffffffffffffffffff1673ffffffffffffffffffffffffffffffffffffffff168473ffffffffffffffffffffffffffffffffffffffff1614611a62576000849050838173ffffffffffffffffffffffffffffffffffffffff166370a08231306040518263ffffffff1660e01b815260040161193d91906158a4565b60206040518083038186803b15801561195557600080fd5b505afa158015611969573d6000803e3d6000fd5b505050506040513d601f19601f8201168201806040525081019061198d91906152a9565b10156119ce576040517f08c379a00000000000000000000000000000000000000000000000000000000081526004016119c590615cd9565b60405180910390fd5b8073ffffffffffffffffffffffffffffffffffffffff1663a9059cbb33866040518363ffffffff1660e01b8152600401611a0992919061598e565b602060405180830381600087803b158015611a2357600080fd5b505af1158015611a37573d6000803e3d6000fd5b505050506040513d601f19601f82011682018060405250810190611a5b9190615257565b5050611aed565b82471015611aa5576040517f08c379a0000000000000000000000000000000000000000000000000000000008152600401611a9c90615bd9565b60405180910390fd5b3373ffffffffffffffffffffffffffffffffffffffff166108fc849081150290604051600060405180830381858888f19350505050158015611aeb573d6000803e3d6000fd5b505b600080611b9f6007805480602002602001604051908101604052809291908181526020018280548015611b7557602002820191906000526020600020905b8160009054906101000a900473ffffffffffffffffffffffffffffffffffffffff1673ffffffffffffffffffffffffffffffffffffffff1681526020019060010190808311611b2b575b50505050503373ffffffffffffffffffffffffffffffffffffffff1661482890919063ffffffff16565b915091508115611bef57611bea8686836040518060400160405280600981526020017f626f72726f776572730000000000000000000000000000000000000000000000815250614906565b611d79565b6007339080600181540180825580915050600190039060005260206000200160009091909190916101000a81548173ffffffffffffffffffffffffffffffffffffffff021916908373ffffffffffffffffffffffffffffffffffffffff16021790555084600960008873ffffffffffffffffffffffffffffffffffffffff1673ffffffffffffffffffffffffffffffffffffffff16815260200190815260200160002060003373ffffffffffffffffffffffffffffffffffffffff1673ffffffffffffffffffffffffffffffffffffffff1681526020019081526020016000208190555085600b6000600d6000815480929190611ceb9061611b565b91905055815260200190815260200160002060003373ffffffffffffffffffffffffffffffffffffffff1673ffffffffffffffffffffffffffffffffffffffff16815260200190815260200160002060006101000a81548173ffffffffffffffffffffffffffffffffffffffff021916908373ffffffffffffffffffffffffffffffffffffffff1602179055505b7f699548a5535b752f15032eb2be1672b2e5e62ddc5d461d4edb5a9321d7cbd25233848685856007600960008e73ffffffffffffffffffffffffffffffffffffffff1673ffffffffffffffffffffffffffffffffffffffff16815260200190815260200160002060003373ffffffffffffffffffffffffffffffffffffffff1673ffffffffffffffffffffffffffffffffffffffff16815260200190815260200160002054604051611e319796959493929190615a0a565b60405180910390a1505050505050565b6000808311156120a357604051602001611e5a9061588f565b6040516020818303038152906040528051906020012082604051602001611e819190615839565b604051602081830303815290604052805190602001201415611f785760005b600c54811015611f72576000600a600083815260200190815260200160002060008873ffffffffffffffffffffffffffffffffffffffff1673ffffffffffffffffffffffffffffffffffffffff16815260200190815260200160002060009054906101000a900473ffffffffffffffffffffffffffffffffffffffff1690508573ffffffffffffffffffffffffffffffffffffffff168173ffffffffffffffffffffffffffffffffffffffff161415611f5e576001925050506120a8565b508080611f6a9061611b565b915050611ea0565b506120a2565b604051602001611f8790615865565b6040516020818303038152906040528051906020012082604051602001611fae9190615839565b6040516020818303038152906040528051906020012014156120a15760005b600d5481101561209f576000600b600083815260200190815260200160002060008873ffffffffffffffffffffffffffffffffffffffff1673ffffffffffffffffffffffffffffffffffffffff16815260200190815260200160002060009054906101000a900473ffffffffffffffffffffffffffffffffffffffff1690508573ffffffffffffffffffffffffffffffffffffffff168173ffffffffffffffffffffffffffffffffffffffff16141561208b576001925050506120a8565b5080806120979061611b565b915050611fcd565b505b5b5b600090505b949350505050565b600d5481565b6000806120c2836125f7565b90506000808211156120de576120d784612428565b90506120ea565b6120e784613457565b90505b818110156120fd5760009250505061210e565b81816121099190615fa1565b925050505b919050565b60036020528060005260406000206000915090508060000160009054906101000a900473ffffffffffffffffffffffffffffffffffffffff16908060010154908060020154908060030160009054906101000a900473ffffffffffffffffffffffffffffffffffffffff16908060030160149054906101000a900460ff16905085565b61219e614e99565b73ffffffffffffffffffffffffffffffffffffffff166121bc612d4a565b73ffffffffffffffffffffffffffffffffffffffff1614612212576040517f08c379a000000000000000000000000000000000000000000000000000000000815260040161220990615cf9565b60405180910390fd5b61221c6000614ea1565b565b6000806000600360008573ffffffffffffffffffffffffffffffffffffffff1673ffffffffffffffffffffffffffffffffffffffff16815260200190815260200160002060000160009054906101000a900473ffffffffffffffffffffffffffffffffffffffff169050600081905060008173ffffffffffffffffffffffffffffffffffffffff1663feaf968c6040518163ffffffff1660e01b815260040160a06040518083038186803b1580156122d557600080fd5b505afa1580156122e9573d6000803e3d6000fd5b505050506040513d601f19601f8201168201806040525081019061230d919061530e565b50505091505060008273ffffffffffffffffffffffffffffffffffffffff1663313ce5676040518163ffffffff1660e01b815260040160206040518083038186803b15801561235b57600080fd5b505afa15801561236f573d6000803e3d6000fd5b505050506040513d601f19601f820116820180604052508101906123939190615385565b60ff16905081819550955050505050915091565b600b6020528160005260406000206020528060005260406000206000915091509054906101000a900473ffffffffffffffffffffffffffffffffffffffff1681565b600781815481106123f957600080fd5b906000526020600020016000915054906101000a900473ffffffffffffffffffffffffffffffffffffffff1681565b6000806000905060005b600c548110156125ed576000600a600083815260200190815260200160002060008673ffffffffffffffffffffffffffffffffffffffff1673ffffffffffffffffffffffffffffffffffffffff16815260200190815260200160002060009054906101000a900473ffffffffffffffffffffffffffffffffffffffff169050600073ffffffffffffffffffffffffffffffffffffffff168173ffffffffffffffffffffffffffffffffffffffff16146125d957600061256d600860008473ffffffffffffffffffffffffffffffffffffffff1673ffffffffffffffffffffffffffffffffffffffff16815260200190815260200160002060008873ffffffffffffffffffffffffffffffffffffffff1673ffffffffffffffffffffffffffffffffffffffff1681526020019081526020016000205483613adf565b9050612710600360008473ffffffffffffffffffffffffffffffffffffffff1673ffffffffffffffffffffffffffffffffffffffff16815260200190815260200160002060010154826125c09190615f47565b6125ca9190615f16565b846125d59190615ec0565b9350505b5080806125e59061611b565b915050612432565b5080915050919050565b6000806000905060005b600d54811015612762576000600b600083815260200190815260200160002060008673ffffffffffffffffffffffffffffffffffffffff1673ffffffffffffffffffffffffffffffffffffffff16815260200190815260200160002060009054906101000a900473ffffffffffffffffffffffffffffffffffffffff169050600073ffffffffffffffffffffffffffffffffffffffff168173ffffffffffffffffffffffffffffffffffffffff161461274e57600061273c600960008473ffffffffffffffffffffffffffffffffffffffff1673ffffffffffffffffffffffffffffffffffffffff16815260200190815260200160002060008873ffffffffffffffffffffffffffffffffffffffff1673ffffffffffffffffffffffffffffffffffffffff1681526020019081526020016000205483613adf565b9050808461274a9190615ec0565b9350505b50808061275a9061611b565b915050612601565b5080915050919050565b612774614e99565b73ffffffffffffffffffffffffffffffffffffffff16612792612d4a565b73ffffffffffffffffffffffffffffffffffffffff16146127e8576040517f08c379a00000000000000000000000000000000000000000000000000000000081526004016127df90615cf9565b60405180910390fd5b8015612a3f57600360008673ffffffffffffffffffffffffffffffffffffffff1673ffffffffffffffffffffffffffffffffffffffff16815260200190815260200160002060030160149054906101000a900460ff161561287e576040517f08c379a000000000000000000000000000000000000000000000000000000000815260040161287590615c19565b60405180910390fd5b6040518060a001604052808673ffffffffffffffffffffffffffffffffffffffff1681526020018581526020018481526020018373ffffffffffffffffffffffffffffffffffffffff168152602001821515815250600360008773ffffffffffffffffffffffffffffffffffffffff1673ffffffffffffffffffffffffffffffffffffffff16815260200190815260200160002060008201518160000160006101000a81548173ffffffffffffffffffffffffffffffffffffffff021916908373ffffffffffffffffffffffffffffffffffffffff160217905550602082015181600101556040820151816002015560608201518160030160006101000a81548173ffffffffffffffffffffffffffffffffffffffff021916908373ffffffffffffffffffffffffffffffffffffffff16021790555060808201518160030160146101000a81548160ff0219169083151502179055509050506002859080600181540180825580915050600190039060005260206000200160009091909190916101000a81548173ffffffffffffffffffffffffffffffffffffffff021916908373ffffffffffffffffffffffffffffffffffffffff160217905550612d43565b600360008673ffffffffffffffffffffffffffffffffffffffff1673ffffffffffffffffffffffffffffffffffffffff16815260200190815260200160002060030160149054906101000a900460ff16612ace576040517f08c379a0000000000000000000000000000000000000000000000000000000008152600401612ac590615d39565b60405180910390fd5b6000600360008773ffffffffffffffffffffffffffffffffffffffff1673ffffffffffffffffffffffffffffffffffffffff16815260200190815260200160002060030160146101000a81548160ff0219169083151502179055506000612bda6002805480602002602001604051908101604052809291908181526020018280548015612bb057602002820191906000526020600020905b8160009054906101000a900473ffffffffffffffffffffffffffffffffffffffff1673ffffffffffffffffffffffffffffffffffffffff1681526020019060010190808311612b66575b50505050508773ffffffffffffffffffffffffffffffffffffffff1661475c90919063ffffffff16565b905060026001600280549050612bf09190615fa1565b81548110612c27577f4e487b7100000000000000000000000000000000000000000000000000000000600052603260045260246000fd5b9060005260206000200160009054906101000a900473ffffffffffffffffffffffffffffffffffffffff1660028281548110612c8c577f4e487b7100000000000000000000000000000000000000000000000000000000600052603260045260246000fd5b9060005260206000200160006101000a81548173ffffffffffffffffffffffffffffffffffffffff021916908373ffffffffffffffffffffffffffffffffffffffff1602179055506002805480612d0c577f4e487b7100000000000000000000000000000000000000000000000000000000600052603160045260246000fd5b6001900381819060005260206000200160006101000a81549073ffffffffffffffffffffffffffffffffffffffff02191690559055505b5050505050565b60008060009054906101000a900473ffffffffffffffffffffffffffffffffffffffff16905090565b60015481565b60068181548110612d8957600080fd5b906000526020600020016000915054906101000a900473ffffffffffffffffffffffffffffffffffffffff1681565b600460009054906101000a900473ffffffffffffffffffffffffffffffffffffffff1681565b60606006805480602002602001604051908101604052809291908181526020018280548015612e6257602002820191906000526020600020905b8160009054906101000a900473ffffffffffffffffffffffffffffffffffffffff1673ffffffffffffffffffffffffffffffffffffffff1681526020019060010190808311612e18575b5050505050905090565b600360008373ffffffffffffffffffffffffffffffffffffffff1673ffffffffffffffffffffffffffffffffffffffff16815260200190815260200160002060030160149054906101000a900460ff16612efb576040517f08c379a0000000000000000000000000000000000000000000000000000000008152600401612ef290615d19565b60405180910390fd5b6000600560009054906101000a900473ffffffffffffffffffffffffffffffffffffffff1673ffffffffffffffffffffffffffffffffffffffff168373ffffffffffffffffffffffffffffffffffffffff161461302d5781905060008111612f98576040517f08c379a0000000000000000000000000000000000000000000000000000000008152600401612f8f90615c59565b60405180910390fd5b8273ffffffffffffffffffffffffffffffffffffffff166323b872dd3330846040518463ffffffff1660e01b8152600401612fd5939291906158bf565b602060405180830381600087803b158015612fef57600080fd5b505af1158015613003573d6000803e3d6000fd5b505050506040513d601f19601f820116820180604052508101906130279190615257565b50613074565b34905060008111613073576040517f08c379a000000000000000000000000000000000000000000000000000000000815260040161306a90615c99565b60405180910390fd5b5b60008061312660068054806020026020016040519081016040528092919081815260200182805480156130fc57602002820191906000526020600020905b8160009054906101000a900473ffffffffffffffffffffffffffffffffffffffff1673ffffffffffffffffffffffffffffffffffffffff16815260200190600101908083116130b2575b50505050503373ffffffffffffffffffffffffffffffffffffffff1661482890919063ffffffff16565b915091508115613176576131718584836040518060400160405280600781526020017f6c656e6465727300000000000000000000000000000000000000000000000000815250614906565b613300565b6006339080600181540180825580915050600190039060005260206000200160009091909190916101000a81548173ffffffffffffffffffffffffffffffffffffffff021916908373ffffffffffffffffffffffffffffffffffffffff16021790555082600860008773ffffffffffffffffffffffffffffffffffffffff1673ffffffffffffffffffffffffffffffffffffffff16815260200190815260200160002060003373ffffffffffffffffffffffffffffffffffffffff1673ffffffffffffffffffffffffffffffffffffffff1681526020019081526020016000208190555084600a6000600c60008154809291906132729061611b565b91905055815260200190815260200160002060003373ffffffffffffffffffffffffffffffffffffffff1673ffffffffffffffffffffffffffffffffffffffff16815260200190815260200160002060006101000a81548173ffffffffffffffffffffffffffffffffffffffff021916908373ffffffffffffffffffffffffffffffffffffffff1602179055505b600460009054906101000a900473ffffffffffffffffffffffffffffffffffffffff1673ffffffffffffffffffffffffffffffffffffffff166340c10f19336133498689613adf565b6040518363ffffffff1660e01b815260040161336692919061598e565b600060405180830381600087803b15801561338057600080fd5b505af1158015613394573d6000803e3d6000fd5b505050507fbb33ffe04605a99e7885b3013bcc050161d1906b3611f09fed70a0c61e1f03de336006600860008973ffffffffffffffffffffffffffffffffffffffff1673ffffffffffffffffffffffffffffffffffffffff16815260200190815260200160002060003373ffffffffffffffffffffffffffffffffffffffff1673ffffffffffffffffffffffffffffffffffffffff16815260200190815260200160002054604051613448939291906158f6565b60405180910390a15050505050565b6000806000905060005b600c548110156136a257600073ffffffffffffffffffffffffffffffffffffffff16600a600083815260200190815260200160002060008673ffffffffffffffffffffffffffffffffffffffff1673ffffffffffffffffffffffffffffffffffffffff16815260200190815260200160002060009054906101000a900473ffffffffffffffffffffffffffffffffffffffff1673ffffffffffffffffffffffffffffffffffffffff161461368f57600060086000600a600085815260200190815260200160002060008873ffffffffffffffffffffffffffffffffffffffff1673ffffffffffffffffffffffffffffffffffffffff16815260200190815260200160002060009054906101000a900473ffffffffffffffffffffffffffffffffffffffff1673ffffffffffffffffffffffffffffffffffffffff1673ffffffffffffffffffffffffffffffffffffffff16815260200190815260200160002060008673ffffffffffffffffffffffffffffffffffffffff1673ffffffffffffffffffffffffffffffffffffffff168152602001908152602001600020549050600061367c82600a600086815260200190815260200160002060008973ffffffffffffffffffffffffffffffffffffffff1673ffffffffffffffffffffffffffffffffffffffff16815260200190815260200160002060009054906101000a900473ffffffffffffffffffffffffffffffffffffffff16613adf565b9050808461368a9190615ec0565b935050505b808061369a9061611b565b915050613461565b5080915050919050565b6009602052816000526040600020602052806000526040600020600091509150505481565b60008060009050600060078054905011156137f95760005b6007805490508110156137f757600960008573ffffffffffffffffffffffffffffffffffffffff1673ffffffffffffffffffffffffffffffffffffffff168152602001908152602001600020600060078381548110613771577f4e487b7100000000000000000000000000000000000000000000000000000000600052603260045260246000fd5b9060005260206000200160009054906101000a900473ffffffffffffffffffffffffffffffffffffffff1673ffffffffffffffffffffffffffffffffffffffff1673ffffffffffffffffffffffffffffffffffffffff16815260200190815260200160002054826137e29190615ec0565b915080806137ef9061611b565b9150506136e9565b505b80915050919050565b600080600090506000805b60028054905081101561399657600060028281548110613856577f4e487b7100000000000000000000000000000000000000000000000000000000600052603260045260246000fd5b9060005260206000200160009054906101000a900473ffffffffffffffffffffffffffffffffffffffff1690506000600860008373ffffffffffffffffffffffffffffffffffffffff1673ffffffffffffffffffffffffffffffffffffffff16815260200190815260200160002060008873ffffffffffffffffffffffffffffffffffffffff1673ffffffffffffffffffffffffffffffffffffffff16815260200190815260200160002054905060006139108284613adf565b90506000612710600360008673ffffffffffffffffffffffffffffffffffffffff1673ffffffffffffffffffffffffffffffffffffffff16815260200190815260200160002060010154836139659190615f47565b61396f9190615f16565b9050808761397d9190615ec0565b965050505050808061398e9061611b565b91505061380d565b5060005b600280549050811015613ac3576000600282815481106139e3577f4e487b7100000000000000000000000000000000000000000000000000000000600052603260045260246000fd5b9060005260206000200160009054906101000a900473ffffffffffffffffffffffffffffffffffffffff1690506000600960008373ffffffffffffffffffffffffffffffffffffffff1673ffffffffffffffffffffffffffffffffffffffff16815260200190815260200160002060008873ffffffffffffffffffffffffffffffffffffffff1673ffffffffffffffffffffffffffffffffffffffff1681526020019081526020016000205490506000613a9d8284613adf565b90508085613aab9190615ec0565b94505050508080613abb9061611b565b91505061399a565b508082613ad09190615fa1565b92505050919050565b600c5481565b600080613aeb8361221e565b5090506000670de0b6b3a76400006402540be40083613b0a9190615f47565b86613b159190615f47565b613b1f9190615f16565b9050809250505092915050565b600a6020528160005260406000206020528060005260406000206000915091509054906101000a900473ffffffffffffffffffffffffffffffffffffffff1681565b613b76614e99565b73ffffffffffffffffffffffffffffffffffffffff16613b94612d4a565b73ffffffffffffffffffffffffffffffffffffffff1614613bea576040517f08c379a0000000000000000000000000000000000000000000000000000000008152600401613be190615cf9565b60405180910390fd5b60008111613c2d576040517f08c379a0000000000000000000000000000000000000000000000000000000008152600401613c2490615b39565b60405180910390fd5b8060018190555050565b600560009054906101000a900473ffffffffffffffffffffffffffffffffffffffff1681565b613c65614e99565b73ffffffffffffffffffffffffffffffffffffffff16613c83612d4a565b73ffffffffffffffffffffffffffffffffffffffff1614613cd9576040517f08c379a0000000000000000000000000000000000000000000000000000000008152600401613cd090615cf9565b60405180910390fd5b600073ffffffffffffffffffffffffffffffffffffffff168173ffffffffffffffffffffffffffffffffffffffff161415613d49576040517f08c379a0000000000000000000000000000000000000000000000000000000008152600401613d4090615b99565b60405180910390fd5b613d5281614ea1565b50565b600360008373ffffffffffffffffffffffffffffffffffffffff1673ffffffffffffffffffffffffffffffffffffffff16815260200190815260200160002060030160149054906101000a900460ff16613de4576040517f08c379a0000000000000000000000000000000000000000000000000000000008152600401613ddb90615d19565b60405180910390fd5b60008111613e27576040517f08c379a0000000000000000000000000000000000000000000000000000000008152600401613e1e90615c59565b60405180910390fd5b6000613ed86006805480602002602001604051908101604052809291908181526020018280548015613eae57602002820191906000526020600020905b8160009054906101000a900473ffffffffffffffffffffffffffffffffffffffff1673ffffffffffffffffffffffffffffffffffffffff1681526020019060010190808311613e64575b50505050503373ffffffffffffffffffffffffffffffffffffffff1661475c90919063ffffffff16565b1215613f19576040517f08c379a0000000000000000000000000000000000000000000000000000000008152600401613f1090615bb9565b60405180910390fd5b6000613f2483610a01565b90506000613f31846136d1565b90508082613f3f9190615fa1565b831115613f81576040517f08c379a0000000000000000000000000000000000000000000000000000000008152600401613f7890615c79565b60405180910390fd5b6000613f8c336120b6565b90506000613f9a8587613adf565b905081811115613fdf576040517f08c379a0000000000000000000000000000000000000000000000000000000008152600401613fd690615b79565b60405180910390fd5b60008190506000600460009054906101000a900473ffffffffffffffffffffffffffffffffffffffff1673ffffffffffffffffffffffffffffffffffffffff166370a08231336040518263ffffffff1660e01b815260040161404191906158a4565b60206040518083038186803b15801561405957600080fd5b505afa15801561406d573d6000803e3d6000fd5b505050506040513d601f19601f8201168201806040525081019061409191906152a9565b90508082116141e057600460009054906101000a900473ffffffffffffffffffffffffffffffffffffffff1673ffffffffffffffffffffffffffffffffffffffff166323b872dd3330856040518463ffffffff1660e01b81526004016140f9939291906158bf565b602060405180830381600087803b15801561411357600080fd5b505af1158015614127573d6000803e3d6000fd5b505050506040513d601f19601f8201168201806040525081019061414b9190615257565b50600460009054906101000a900473ffffffffffffffffffffffffffffffffffffffff1673ffffffffffffffffffffffffffffffffffffffff16639dc29fac30846040518363ffffffff1660e01b81526004016141a992919061598e565b600060405180830381600087803b1580156141c357600080fd5b505af11580156141d7573d6000803e3d6000fd5b50505050614322565b600460009054906101000a900473ffffffffffffffffffffffffffffffffffffffff1673ffffffffffffffffffffffffffffffffffffffff166323b872dd3330846040518463ffffffff1660e01b815260040161423f939291906158bf565b602060405180830381600087803b15801561425957600080fd5b505af115801561426d573d6000803e3d6000fd5b505050506040513d601f19601f820116820180604052508101906142919190615257565b50600460009054906101000a900473ffffffffffffffffffffffffffffffffffffffff1673ffffffffffffffffffffffffffffffffffffffff16639dc29fac30836040518363ffffffff1660e01b81526004016142ef92919061598e565b600060405180830381600087803b15801561430957600080fd5b505af115801561431d573d6000803e3d6000fd5b505050505b600560009054906101000a900473ffffffffffffffffffffffffffffffffffffffff1673ffffffffffffffffffffffffffffffffffffffff168873ffffffffffffffffffffffffffffffffffffffff16146143c3573373ffffffffffffffffffffffffffffffffffffffff166108fc889081150290604051600060405180830381858888f193505050501580156143bd573d6000803e3d6000fd5b50614452565b8773ffffffffffffffffffffffffffffffffffffffff1663a9059cbb33896040518363ffffffff1660e01b81526004016143fe92919061598e565b602060405180830381600087803b15801561441857600080fd5b505af115801561442c573d6000803e3d6000fd5b505050506040513d601f19601f820116820180604052508101906144509190615257565b505b86600860008a73ffffffffffffffffffffffffffffffffffffffff1673ffffffffffffffffffffffffffffffffffffffff16815260200190815260200160002060003373ffffffffffffffffffffffffffffffffffffffff1673ffffffffffffffffffffffffffffffffffffffff16815260200190815260200160002060008282546144de9190615fa1565b9250508190555060006144f033613457565b1161470957600660016006805490506145099190615fa1565b81548110614540577f4e487b7100000000000000000000000000000000000000000000000000000000600052603260045260246000fd5b9060005260206000200160009054906101000a900473ffffffffffffffffffffffffffffffffffffffff16600661461c60068054806020026020016040519081016040528092919081815260200182805480156145f257602002820191906000526020600020905b8160009054906101000a900473ffffffffffffffffffffffffffffffffffffffff1673ffffffffffffffffffffffffffffffffffffffff16815260200190600101908083116145a8575b50505050503373ffffffffffffffffffffffffffffffffffffffff1661475c90919063ffffffff16565b81548110614653577f4e487b7100000000000000000000000000000000000000000000000000000000600052603260045260246000fd5b9060005260206000200160006101000a81548173ffffffffffffffffffffffffffffffffffffffff021916908373ffffffffffffffffffffffffffffffffffffffff16021790555060068054806146d3577f4e487b7100000000000000000000000000000000000000000000000000000000600052603160045260246000fd5b6001900381819060005260206000200160006101000a81549073ffffffffffffffffffffffffffffffffffffffff021916905590555b7fb7ee00edafdb5db3a1b52a5789a6b562eb48268842d113dbfe860b6f86e5f5953388858761473733613457565b8760405161474a96959493929190615a80565b60405180910390a15050505050505050565b600080600090505b82518110156147fd578281815181106147a6577f4e487b7100000000000000000000000000000000000000000000000000000000600052603260045260246000fd5b602002602001015173ffffffffffffffffffffffffffffffffffffffff168473ffffffffffffffffffffffffffffffffffffffff1614156147ea5780915050614822565b80806147f59061611b565b915050614764565b507fffffffffffffffffffffffffffffffffffffffffffffffffffffffffffffffff90505b92915050565b6000806000835111156148d75760005b83518110156148d55783818151811061487a577f4e487b7100000000000000000000000000000000000000000000000000000000600052603260045260246000fd5b602002602001015173ffffffffffffffffffffffffffffffffffffffff168573ffffffffffffffffffffffffffffffffffffffff1614156148c25760018192509250506148ff565b80806148cd9061611b565b915050614838565b505b60007fffffffffffffffffffffffffffffffffffffffffffffffffffffffffffffffff915091505b9250929050565b60405160200161491590615850565b604051602081830303815290604052805190602001208160405160200161493c9190615839565b604051602081830303815290604052805190602001201415614bce57600060068381548110614994577f4e487b7100000000000000000000000000000000000000000000000000000000600052603260045260246000fd5b9060005260206000200160009054906101000a900473ffffffffffffffffffffffffffffffffffffffff169050614a048186600c546040518060400160405280600a81526020017f746f6b656e734c656e7400000000000000000000000000000000000000000000815250611e41565b15614aa15783600860008773ffffffffffffffffffffffffffffffffffffffff1673ffffffffffffffffffffffffffffffffffffffff16815260200190815260200160002060008373ffffffffffffffffffffffffffffffffffffffff1673ffffffffffffffffffffffffffffffffffffffff1681526020019081526020016000206000828254614a959190615ec0565b92505081905550614bc8565b84600a6000600c6000815480929190614ab99061611b565b91905055815260200190815260200160002060008373ffffffffffffffffffffffffffffffffffffffff1673ffffffffffffffffffffffffffffffffffffffff16815260200190815260200160002060006101000a81548173ffffffffffffffffffffffffffffffffffffffff021916908373ffffffffffffffffffffffffffffffffffffffff16021790555083600860008773ffffffffffffffffffffffffffffffffffffffff1673ffffffffffffffffffffffffffffffffffffffff16815260200190815260200160002060008373ffffffffffffffffffffffffffffffffffffffff1673ffffffffffffffffffffffffffffffffffffffff168152602001908152602001600020819055505b50614e93565b604051602001614bdd9061587a565b6040516020818303038152906040528051906020012081604051602001614c049190615839565b604051602081830303815290604052805190602001201415614e9257600060078381548110614c5c577f4e487b7100000000000000000000000000000000000000000000000000000000600052603260045260246000fd5b9060005260206000200160009054906101000a900473ffffffffffffffffffffffffffffffffffffffff169050614ccc8186600d546040518060400160405280600e81526020017f746f6b656e73426f72726f776564000000000000000000000000000000000000815250611e41565b15614d695783600960008773ffffffffffffffffffffffffffffffffffffffff1673ffffffffffffffffffffffffffffffffffffffff16815260200190815260200160002060008373ffffffffffffffffffffffffffffffffffffffff1673ffffffffffffffffffffffffffffffffffffffff1681526020019081526020016000206000828254614d5d9190615ec0565b92505081905550614e90565b84600b6000600d6000815480929190614d819061611b565b91905055815260200190815260200160002060008373ffffffffffffffffffffffffffffffffffffffff1673ffffffffffffffffffffffffffffffffffffffff16815260200190815260200160002060006101000a81548173ffffffffffffffffffffffffffffffffffffffff021916908373ffffffffffffffffffffffffffffffffffffffff16021790555083600960008773ffffffffffffffffffffffffffffffffffffffff1673ffffffffffffffffffffffffffffffffffffffff16815260200190815260200160002060008373ffffffffffffffffffffffffffffffffffffffff1673ffffffffffffffffffffffffffffffffffffffff168152602001908152602001600020819055505b505b5b50505050565b600033905090565b60008060009054906101000a900473ffffffffffffffffffffffffffffffffffffffff169050816000806101000a81548173ffffffffffffffffffffffffffffffffffffffff021916908373ffffffffffffffffffffffffffffffffffffffff1602179055508173ffffffffffffffffffffffffffffffffffffffff168173ffffffffffffffffffffffffffffffffffffffff167f8be0079c531659141344cd1fd0a4f28419497f9722a3daafe3b4186f6b6457e060405160405180910390a35050565b6000614f78614f7384615e02565b615ddd565b905082815260208101848484011115614f9057600080fd5b614f9b84828561608e565b509392505050565b600081359050614fb281616669565b92915050565b600081359050614fc781616680565b92915050565b600081519050614fdc81616680565b92915050565b600081519050614ff181616697565b92915050565b600082601f83011261500857600080fd5b8135615018848260208601614f65565b91505092915050565b600081359050615030816166ae565b92915050565b600081519050615045816166ae565b92915050565b60008151905061505a816166dc565b92915050565b60008151905061506f816166c5565b92915050565b60006020828403121561508757600080fd5b600061509584828501614fa3565b91505092915050565b600080604083850312156150b157600080fd5b60006150bf85828601614fa3565b92505060206150d085828601614fa3565b9150509250929050565b6000806000606084860312156150ef57600080fd5b60006150fd86828701614fa3565b935050602061510e86828701614fa3565b925050604061511f86828701615021565b9150509250925092565b6000806000806080858703121561513f57600080fd5b600061514d87828801614fa3565b945050602061515e87828801614fa3565b935050604061516f87828801615021565b925050606085013567ffffffffffffffff81111561518c57600080fd5b61519887828801614ff7565b91505092959194509250565b600080604083850312156151b757600080fd5b60006151c585828601614fa3565b92505060206151d685828601615021565b9150509250929050565b600080600080600060a086880312156151f857600080fd5b600061520688828901614fa3565b955050602061521788828901615021565b945050604061522888828901615021565b935050606061523988828901614fa3565b925050608061524a88828901614fb8565b9150509295509295909350565b60006020828403121561526957600080fd5b600061527784828501614fcd565b91505092915050565b60006020828403121561529257600080fd5b60006152a084828501615021565b91505092915050565b6000602082840312156152bb57600080fd5b60006152c984828501615036565b91505092915050565b600080604083850312156152e557600080fd5b60006152f385828601615021565b925050602061530485828601614fa3565b9150509250929050565b600080600080600060a0868803121561532657600080fd5b60006153348882890161504b565b955050602061534588828901614fe2565b945050604061535688828901615036565b935050606061536788828901615036565b92505060806153788882890161504b565b9150509295509295909350565b60006020828403121561539757600080fd5b60006153a584828501615060565b91505092915050565b60006153ba83836153c6565b60208301905092915050565b6153cf81615ff5565b82525050565b6153de81615ff5565b82525050565b60006153ef82615e58565b6153f98185615e93565b935061540483615e33565b8060005b8381101561543557815161541c88826153ae565b975061542783615e79565b925050600181019050615408565b5085935050505092915050565b600061544d82615e63565b6154578185615e93565b935061546283615e43565b8060005b8381101561549a57615477826161f1565b61548188826153ae565b975061548c83615e86565b925050600181019050615466565b5085935050505092915050565b6154b081616007565b82525050565b6154bf8161606a565b82525050565b6154ce81616013565b82525050565b60006154df82615e6e565b6154e98185615eb5565b93506154f981856020860161609d565b80840191505092915050565b6000615512601d83615ea4565b915061551d82616222565b602082019050919050565b6000615535602283615ea4565b91506155408261624b565b604082019050919050565b6000615558602883615ea4565b91506155638261629a565b604082019050919050565b600061557b602683615ea4565b9150615586826162e9565b604082019050919050565b600061559e600783615eb5565b91506155a982616338565b600782019050919050565b60006155c1602083615ea4565b91506155cc82616361565b602082019050919050565b60006155e4601183615ea4565b91506155ef8261638a565b602082019050919050565b6000615607601e83615ea4565b9150615612826163b3565b602082019050919050565b600061562a601783615ea4565b9150615635826163dc565b602082019050919050565b600061564d600e83615ea4565b915061565882616405565b602082019050919050565b6000615670601d83615ea4565b915061567b8261642e565b602082019050919050565b6000615693601b83615ea4565b915061569e82616457565b602082019050919050565b60006156b6601c83615ea4565b91506156c182616480565b602082019050919050565b60006156d9601f83615ea4565b91506156e4826164a9565b602082019050919050565b60006156fc600e83615eb5565b9150615707826164d2565b600e82019050919050565b600061571f600983615eb5565b915061572a826164fb565b600982019050919050565b6000615742601283615ea4565b915061574d82616524565b602082019050919050565b6000615765602083615ea4565b91506157708261654d565b602082019050919050565b6000615788601383615ea4565b915061579382616576565b602082019050919050565b60006157ab601b83615ea4565b91506157b68261659f565b602082019050919050565b60006157ce601783615ea4565b91506157d9826165c8565b602082019050919050565b60006157f1602283615ea4565b91506157fc826165f1565b604082019050919050565b6000615814600a83615eb5565b915061581f82616640565b600a82019050919050565b6158338161603d565b82525050565b600061584582846154d4565b915081905092915050565b600061585b82615591565b9150819050919050565b6000615870826156ef565b9150819050919050565b600061588582615712565b9150819050919050565b600061589a82615807565b9150819050919050565b60006020820190506158b960008301846153d5565b92915050565b60006060820190506158d460008301866153d5565b6158e160208301856153d5565b6158ee604083018461582a565b949350505050565b600060608201905061590b60008301866153d5565b818103602083015261591d8185615442565b905061592c604083018461582a565b949350505050565b600060a08201905061594960008301886153d5565b61595660208301876154c5565b615963604083018661582a565b615970606083018561582a565b81810360808301526159828184615442565b90509695505050505050565b60006040820190506159a360008301856153d5565b6159b0602083018461582a565b9392505050565b600060a0820190506159cc60008301886153d5565b6159d9602083018761582a565b6159e6604083018661582a565b6159f360608301856153d5565b615a0060808301846154a7565b9695505050505050565b600060e082019050615a1f600083018a6153d5565b615a2c602083018961582a565b615a39604083018861582a565b615a4660608301876154a7565b615a5360808301866154c5565b81810360a0830152615a658185615442565b9050615a7460c083018461582a565b98975050505050505050565b600060c082019050615a9560008301896153d5565b615aa2602083018861582a565b615aaf604083018761582a565b615abc606083018661582a565b615ac9608083018561582a565b615ad660a083018461582a565b979650505050505050565b60006020820190508181036000830152615afb81846153e4565b905092915050565b6000602082019050615b1860008301846154a7565b92915050565b6000602082019050615b3360008301846154b6565b92915050565b60006020820190508181036000830152615b5281615505565b9050919050565b60006020820190508181036000830152615b7281615528565b9050919050565b60006020820190508181036000830152615b928161554b565b9050919050565b60006020820190508181036000830152615bb28161556e565b9050919050565b60006020820190508181036000830152615bd2816155b4565b9050919050565b60006020820190508181036000830152615bf2816155d7565b9050919050565b60006020820190508181036000830152615c12816155fa565b9050919050565b60006020820190508181036000830152615c328161561d565b9050919050565b60006020820190508181036000830152615c5281615640565b9050919050565b60006020820190508181036000830152615c7281615663565b9050919050565b60006020820190508181036000830152615c9281615686565b9050919050565b60006020820190508181036000830152615cb2816156a9565b9050919050565b60006020820190508181036000830152615cd2816156cc565b9050919050565b60006020820190508181036000830152615cf281615735565b9050919050565b60006020820190508181036000830152615d1281615758565b9050919050565b60006020820190508181036000830152615d328161577b565b9050919050565b60006020820190508181036000830152615d528161579e565b9050919050565b60006020820190508181036000830152615d72816157c1565b9050919050565b60006020820190508181036000830152615d92816157e4565b9050919050565b6000602082019050615dae600083018461582a565b92915050565b6000604082019050615dc9600083018561582a565b615dd6602083018461582a565b9392505050565b6000615de7615df8565b9050615df382826160ea565b919050565b6000604051905090565b600067ffffffffffffffff821115615e1d57615e1c6161c2565b5b615e2682616204565b9050602081019050919050565b6000819050602082019050919050565b60008190508160005260206000209050919050565b600081519050919050565b600081549050919050565b600081519050919050565b6000602082019050919050565b6000600182019050919050565b600082825260208201905092915050565b600082825260208201905092915050565b600081905092915050565b6000615ecb8261603d565b9150615ed68361603d565b9250827fffffffffffffffffffffffffffffffffffffffffffffffffffffffffffffffff03821115615f0b57615f0a616164565b5b828201905092915050565b6000615f218261603d565b9150615f2c8361603d565b925082615f3c57615f3b616193565b5b828204905092915050565b6000615f528261603d565b9150615f5d8361603d565b9250817fffffffffffffffffffffffffffffffffffffffffffffffffffffffffffffffff0483118215151615615f9657615f95616164565b5b828202905092915050565b6000615fac8261603d565b9150615fb78361603d565b925082821015615fca57615fc9616164565b5b828203905092915050565b600073ffffffffffffffffffffffffffffffffffffffff82169050919050565b60006160008261601d565b9050919050565b60008115159050919050565b6000819050919050565b600073ffffffffffffffffffffffffffffffffffffffff82169050919050565b6000819050919050565b600060ff82169050919050565b600069ffffffffffffffffffff82169050919050565b60006160758261607c565b9050919050565b60006160878261601d565b9050919050565b82818337600083830152505050565b60005b838110156160bb5780820151818401526020810190506160a0565b838111156160ca576000848401525b50505050565b60006160e36160de83616215565b615fd5565b9050919050565b6160f382616204565b810181811067ffffffffffffffff82111715616112576161116161c2565b5b80604052505050565b60006161268261603d565b91507fffffffffffffffffffffffffffffffffffffffffffffffffffffffffffffffff82141561615957616158616164565b5b600182019050919050565b7f4e487b7100000000000000000000000000000000000000000000000000000000600052601160045260246000fd5b7f4e487b7100000000000000000000000000000000000000000000000000000000600052601260045260246000fd5b7f4e487b7100000000000000000000000000000000000000000000000000000000600052604160045260246000fd5b60006161fd82546160d0565b9050919050565b6000601f19601f8301169050919050565b60008160001c9050919050565b7f496e76616c6964206c69717569646174696f6e207468726573686f6c64000000600082015250565b7f55736572206e6f742070726573656e7420696e20626f72726f77657273206c6960008201527f7374000000000000000000000000000000000000000000000000000000000000602082015250565b7f496e73756666696369656e7420746f6b656e20617661696c61626c6520746f2060008201527f7769746864726177000000000000000000000000000000000000000000000000602082015250565b7f4f776e61626c653a206e6577206f776e657220697320746865207a65726f206160008201527f6464726573730000000000000000000000000000000000000000000000000000602082015250565b7f6c656e6465727300000000000000000000000000000000000000000000000000600082015250565b7f55736572206e6f742070726573656e7420696e206c656e64657273206c697374600082015250565b7f496e73756666696369656e7420436f696e000000000000000000000000000000600082015250565b7f4e6f7420656e6f75676820746f6b656e7320746f206c69717569646174650000600082015250565b7f546f6b656e20616c726561647920737570706f72746564000000000000000000600082015250565b7f4e6f206465627420746f20706179000000000000000000000000000000000000600082015250565b7f416d6f756e74206d7573742062652067726561746572207468616e2030000000600082015250565b7f496e73756666696369656e7420746f6b656e20737570706c6965640000000000600082015250565b7f56616c7565206d7573742062652067726561746572207468616e203000000000600082015250565b7f4163636f756e74206e6f742062656c6f77206c6971207468726573686f6c6400600082015250565b7f746f6b656e73426f72726f776564000000000000000000000000000000000000600082015250565b7f626f72726f776572730000000000000000000000000000000000000000000000600082015250565b7f496e73756666696369656e7420546f6b656e0000000000000000000000000000600082015250565b7f4f776e61626c653a2063616c6c6572206973206e6f7420746865206f776e6572600082015250565b7f546f6b656e206e6f7420737570706f7274656400000000000000000000000000600082015250565b7f546f6b656e206e6f7420696e20737570706f72746564206c6973740000000000600082015250565b7f496e73756666696369656e7420636f6c6c61746572616c000000000000000000600082015250565b7f4e6f20636f6c6c61746572616c206f72206465627420746f206c69717569646160008201527f7465000000000000000000000000000000000000000000000000000000000000602082015250565b7f746f6b656e734c656e7400000000000000000000000000000000000000000000600082015250565b61667281615ff5565b811461667d57600080fd5b50565b61668981616007565b811461669457600080fd5b50565b6166a081616013565b81146166ab57600080fd5b50565b6166b78161603d565b81146166c257600080fd5b50565b6166ce81616047565b81146166d957600080fd5b50565b6166e581616054565b81146166f057600080fd5b5056fea2646970667358221220bc8d33e6b0229887d6f75a89473d2e0e6b42caa1999d9c0e037a948c4ee482fd64736f6c63430008040033",
  "linkReferences": {},
  "deployedLinkReferences": {}
}