{
  "_format": "hh-sol-artifact-1",
  "contractName": "Token",
  "sourceName": "contracts/Token.sol",
  "abi": [
    {
      "inputs": [
        {
          "internalType": "uint256",
          "name": "_totalSupply",
          "type": "uint256"
        }
      ],
      "stateMutability": "nonpayable",
      "type": "constructor"
    },
    {
      "anonymous": false,
      "inputs": [
        {
          "indexed": true,
          "internalType": "address",
          "name": "owner",
          "type": "address"
        },
        {
          "indexed": true,
          "internalType": "address",
          "name": "spender",
          "type": "address"
        },
        {
          "indexed": false,
          "internalType": "uint256",
          "name": "value",
          "type": "uint256"
        }
      ],
      "name": "Approval",
      "type": "event"
    },
    {
      "anonymous": false,
      "inputs": [
        {
          "indexed": true,
          "internalType": "bytes32",
          "name": "role",
          "type": "bytes32"
        },
        {
          "indexed": true,
          "internalType": "bytes32",
          "name": "previousAdminRole",
          "type": "bytes32"
        },
        {
          "indexed": true,
          "internalType": "bytes32",
          "name": "newAdminRole",
          "type": "bytes32"
        }
      ],
      "name": "RoleAdminChanged",
      "type": "event"
    },
    {
      "anonymous": false,
      "inputs": [
        {
          "indexed": true,
          "internalType": "bytes32",
          "name": "role",
          "type": "bytes32"
        },
        {
          "indexed": true,
          "internalType": "address",
          "name": "account",
          "type": "address"
        },
        {
          "indexed": true,
          "internalType": "address",
          "name": "sender",
          "type": "address"
        }
      ],
      "name": "RoleGranted",
      "type": "event"
    },
    {
      "anonymous": false,
      "inputs": [
        {
          "indexed": true,
          "internalType": "bytes32",
          "name": "role",
          "type": "bytes32"
        },
        {
          "indexed": true,
          "internalType": "address",
          "name": "account",
          "type": "address"
        },
        {
          "indexed": true,
          "internalType": "address",
          "name": "sender",
          "type": "address"
        }
      ],
      "name": "RoleRevoked",
      "type": "event"
    },
    {
      "anonymous": false,
      "inputs": [
        {
          "indexed": true,
          "internalType": "address",
          "name": "from",
          "type": "address"
        },
        {
          "indexed": true,
          "internalType": "address",
          "name": "to",
          "type": "address"
        },
        {
          "indexed": false,
          "internalType": "uint256",
          "name": "value",
          "type": "uint256"
        }
      ],
      "name": "Transfer",
      "type": "event"
    },
    {
      "inputs": [],
      "name": "DEFAULT_ADMIN_ROLE",
      "outputs": [
        {
          "internalType": "bytes32",
          "name": "",
          "type": "bytes32"
        }
      ],
      "stateMutability": "view",
      "type": "function"
    },
    {
      "inputs": [],
      "name": "MINTER_ROLE",
      "outputs": [
        {
          "internalType": "bytes32",
          "name": "",
          "type": "bytes32"
        }
      ],
      "stateMutability": "view",
      "type": "function"
    },
    {
      "inputs": [],
      "name": "PAUSER_ROLE",
      "outputs": [
        {
          "internalType": "bytes32",
          "name": "",
          "type": "bytes32"
        }
      ],
      "stateMutability": "view",
      "type": "function"
    },
    {
      "inputs": [
        {
          "internalType": "address",
          "name": "owner",
          "type": "address"
        },
        {
          "internalType": "address",
          "name": "spender",
          "type": "address"
        }
      ],
      "name": "allowance",
      "outputs": [
        {
          "internalType": "uint256",
          "name": "",
          "type": "uint256"
        }
      ],
      "stateMutability": "view",
      "type": "function"
    },
    {
      "inputs": [
        {
          "internalType": "address",
          "name": "spender",
          "type": "address"
        },
        {
          "internalType": "uint256",
          "name": "amount",
          "type": "uint256"
        }
      ],
      "name": "approve",
      "outputs": [
        {
          "internalType": "bool",
          "name": "",
          "type": "bool"
        }
      ],
      "stateMutability": "nonpayable",
      "type": "function"
    },
    {
      "inputs": [
        {
          "internalType": "address",
          "name": "account",
          "type": "address"
        }
      ],
      "name": "balanceOf",
      "outputs": [
        {
          "internalType": "uint256",
          "name": "",
          "type": "uint256"
        }
      ],
      "stateMutability": "view",
      "type": "function"
    },
    {
      "inputs": [
        {
          "internalType": "uint256",
          "name": "amount",
          "type": "uint256"
        }
      ],
      "name": "burn",
      "outputs": [],
      "stateMutability": "nonpayable",
      "type": "function"
    },
    {
      "inputs": [],
      "name": "decimals",
      "outputs": [
        {
          "internalType": "uint8",
          "name": "",
          "type": "uint8"
        }
      ],
      "stateMutability": "view",
      "type": "function"
    },
    {
      "inputs": [
        {
          "internalType": "address",
          "name": "spender",
          "type": "address"
        },
        {
          "internalType": "uint256",
          "name": "subtractedValue",
          "type": "uint256"
        }
      ],
      "name": "decreaseAllowance",
      "outputs": [
        {
          "internalType": "bool",
          "name": "",
          "type": "bool"
        }
      ],
      "stateMutability": "nonpayable",
      "type": "function"
    },
    {
      "inputs": [
        {
          "internalType": "bytes32",
          "name": "role",
          "type": "bytes32"
        }
      ],
      "name": "getRoleAdmin",
      "outputs": [
        {
          "internalType": "bytes32",
          "name": "",
          "type": "bytes32"
        }
      ],
      "stateMutability": "view",
      "type": "function"
    },
    {
      "inputs": [
        {
          "internalType": "bytes32",
          "name": "role",
          "type": "bytes32"
        },
        {
          "internalType": "uint256",
          "name": "index",
          "type": "uint256"
        }
      ],
      "name": "getRoleMember",
      "outputs": [
        {
          "internalType": "address",
          "name": "",
          "type": "address"
        }
      ],
      "stateMutability": "view",
      "type": "function"
    },
    {
      "inputs": [
        {
          "internalType": "bytes32",
          "name": "role",
          "type": "bytes32"
        }
      ],
      "name": "getRoleMemberCount",
      "outputs": [
        {
          "internalType": "uint256",
          "name": "",
          "type": "uint256"
        }
      ],
      "stateMutability": "view",
      "type": "function"
    },
    {
      "inputs": [
        {
          "internalType": "bytes32",
          "name": "role",
          "type": "bytes32"
        },
        {
          "internalType": "address",
          "name": "account",
          "type": "address"
        }
      ],
      "name": "grantRole",
      "outputs": [],
      "stateMutability": "nonpayable",
      "type": "function"
    },
    {
      "inputs": [
        {
          "internalType": "bytes32",
          "name": "role",
          "type": "bytes32"
        },
        {
          "internalType": "address",
          "name": "account",
          "type": "address"
        }
      ],
      "name": "hasRole",
      "outputs": [
        {
          "internalType": "bool",
          "name": "",
          "type": "bool"
        }
      ],
      "stateMutability": "view",
      "type": "function"
    },
    {
      "inputs": [
        {
          "internalType": "address",
          "name": "spender",
          "type": "address"
        },
        {
          "internalType": "uint256",
          "name": "addedValue",
          "type": "uint256"
        }
      ],
      "name": "increaseAllowance",
      "outputs": [
        {
          "internalType": "bool",
          "name": "",
          "type": "bool"
        }
      ],
      "stateMutability": "nonpayable",
      "type": "function"
    },
    {
      "inputs": [
        {
          "internalType": "address",
          "name": "to",
          "type": "address"
        },
        {
          "internalType": "uint256",
          "name": "amount",
          "type": "uint256"
        }
      ],
      "name": "mint",
      "outputs": [],
      "stateMutability": "nonpayable",
      "type": "function"
    },
    {
      "inputs": [],
      "name": "name",
      "outputs": [
        {
          "internalType": "string",
          "name": "",
          "type": "string"
        }
      ],
      "stateMutability": "view",
      "type": "function"
    },
    {
      "inputs": [
        {
          "internalType": "bytes32",
          "name": "role",
          "type": "bytes32"
        },
        {
          "internalType": "address",
          "name": "account",
          "type": "address"
        }
      ],
      "name": "renounceRole",
      "outputs": [],
      "stateMutability": "nonpayable",
      "type": "function"
    },
    {
      "inputs": [
        {
          "internalType": "bytes32",
          "name": "role",
          "type": "bytes32"
        },
        {
          "internalType": "address",
          "name": "account",
          "type": "address"
        }
      ],
      "name": "revokeRole",
      "outputs": [],
      "stateMutability": "nonpayable",
      "type": "function"
    },
    {
      "inputs": [
        {
          "internalType": "bytes4",
          "name": "interfaceId",
          "type": "bytes4"
        }
      ],
      "name": "supportsInterface",
      "outputs": [
        {
          "internalType": "bool",
          "name": "",
          "type": "bool"
        }
      ],
      "stateMutability": "view",
      "type": "function"
    },
    {
      "inputs": [],
      "name": "symbol",
      "outputs": [
        {
          "internalType": "string",
          "name": "",
          "type": "string"
        }
      ],
      "stateMutability": "view",
      "type": "function"
    },
    {
      "inputs": [],
      "name": "totalSupply",
      "outputs": [
        {
          "internalType": "uint256",
          "name": "",
          "type": "uint256"
        }
      ],
      "stateMutability": "view",
      "type": "function"
    },
    {
      "inputs": [
        {
          "internalType": "address",
          "name": "to",
          "type": "address"
        },
        {
          "internalType": "uint256",
          "name": "amount",
          "type": "uint256"
        }
      ],
      "name": "transfer",
      "outputs": [
        {
          "internalType": "bool",
          "name": "",
          "type": "bool"
        }
      ],
      "stateMutability": "nonpayable",
      "type": "function"
    },
    {
      "inputs": [
        {
          "internalType": "address",
          "name": "from",
          "type": "address"
        },
        {
          "internalType": "address",
          "name": "to",
          "type": "address"
        },
        {
          "internalType": "uint256",
          "name": "amount",
          "type": "uint256"
        }
      ],
      "name": "transferFrom",
      "outputs": [
        {
          "internalType": "bool",
          "name": "",
          "type": "bool"
        }
      ],
      "stateMutability": "nonpayable",
      "type": "function"
    }
  ],
  "bytecode": "0x60806040523480156200001157600080fd5b506040516200352338038062003523833981810160405281019062000037919062000678565b6040518060400160405280600681526020017f61546f6b656e00000000000000000000000000000000000000000000000000008152506040518060400160405280600381526020017f41544b00000000000000000000000000000000000000000000000000000000008152508160039080519060200190620000bb929190620005b1565b508060049080519060200190620000d4929190620005b1565b505050620000fb6000801b620000ef6200019660201b60201c565b6200019e60201b60201c565b6200013c7f9f2df0fed2c77648de5860a4cc508cd0818c85b8b8a1ab4ceeef8d981c8956a6620001306200019660201b60201c565b6200019e60201b60201c565b6200017d7f65d7a28e3265b37a6474929f336521b332c1681b933f6cb9f3376673440d862a620001716200019660201b60201c565b6200019e60201b60201c565b6200018f3382620001e660201b60201c565b506200086a565b600033905090565b620001b582826200035f60201b62000bd81760201c565b620001e181600660008581526020019081526020016000206200037560201b62000be61790919060201c565b505050565b600073ffffffffffffffffffffffffffffffffffffffff168273ffffffffffffffffffffffffffffffffffffffff16141562000259576040517f08c379a00000000000000000000000000000000000000000000000000000000081526004016200025090620006dc565b60405180910390fd5b6200026d60008383620003ad60201b60201c565b80600260008282546200028191906200072c565b92505081905550806000808473ffffffffffffffffffffffffffffffffffffffff1673ffffffffffffffffffffffffffffffffffffffff1681526020019081526020016000206000828254620002d891906200072c565b925050819055508173ffffffffffffffffffffffffffffffffffffffff16600073ffffffffffffffffffffffffffffffffffffffff167fddf252ad1be2c89b69c2b068fc378daa952ba7f163c4a11628f55a4df523b3ef836040516200033f9190620006fe565b60405180910390a36200035b60008383620003b260201b60201c565b5050565b620003718282620003b760201b60201c565b5050565b6000620003a5836000018373ffffffffffffffffffffffffffffffffffffffff1660001b620004a960201b60201c565b905092915050565b505050565b505050565b620003c982826200052360201b60201c565b620004a55760016005600084815260200190815260200160002060000160008373ffffffffffffffffffffffffffffffffffffffff1673ffffffffffffffffffffffffffffffffffffffff16815260200190815260200160002060006101000a81548160ff0219169083151502179055506200044a6200019660201b60201c565b73ffffffffffffffffffffffffffffffffffffffff168173ffffffffffffffffffffffffffffffffffffffff16837f2f8788117e7eff1d82e926ec794901d17c78024a50270940304540a733656f0d60405160405180910390a45b5050565b6000620004bd83836200058e60201b60201c565b620005185782600001829080600181540180825580915050600190039060005260206000200160009091909190915055826000018054905083600101600084815260200190815260200160002081905550600190506200051d565b600090505b92915050565b60006005600084815260200190815260200160002060000160008373ffffffffffffffffffffffffffffffffffffffff1673ffffffffffffffffffffffffffffffffffffffff16815260200190815260200160002060009054906101000a900460ff16905092915050565b600080836001016000848152602001908152602001600020541415905092915050565b828054620005bf9062000793565b90600052602060002090601f016020900481019282620005e357600085556200062f565b82601f10620005fe57805160ff19168380011785556200062f565b828001600101855582156200062f579182015b828111156200062e57825182559160200191906001019062000611565b5b5090506200063e919062000642565b5090565b5b808211156200065d57600081600090555060010162000643565b5090565b600081519050620006728162000850565b92915050565b6000602082840312156200068b57600080fd5b60006200069b8482850162000661565b91505092915050565b6000620006b3601f836200071b565b9150620006c08262000827565b602082019050919050565b620006d68162000789565b82525050565b60006020820190508181036000830152620006f781620006a4565b9050919050565b6000602082019050620007156000830184620006cb565b92915050565b600082825260208201905092915050565b6000620007398262000789565b9150620007468362000789565b9250827fffffffffffffffffffffffffffffffffffffffffffffffffffffffffffffffff038211156200077e576200077d620007c9565b5b828201905092915050565b6000819050919050565b60006002820490506001821680620007ac57607f821691505b60208210811415620007c357620007c2620007f8565b5b50919050565b7f4e487b7100000000000000000000000000000000000000000000000000000000600052601160045260246000fd5b7f4e487b7100000000000000000000000000000000000000000000000000000000600052602260045260246000fd5b7f45524332303a206d696e7420746f20746865207a65726f206164647265737300600082015250565b6200085b8162000789565b81146200086757600080fd5b50565b612ca9806200087a6000396000f3fe608060405234801561001057600080fd5b50600436106101585760003560e01c806370a08231116100c3578063a9059cbb1161007c578063a9059cbb14610413578063ca15c87314610443578063d539139314610473578063d547741f14610491578063dd62ed3e146104ad578063e63ab1e9146104dd57610158565b806370a08231146103175780639010d07c1461034757806391d148541461037757806395d89b41146103a7578063a217fddf146103c5578063a457c2d7146103e357610158565b80632f2ff15d116101155780632f2ff15d14610259578063313ce5671461027557806336568abe1461029357806339509351146102af57806340c10f19146102df57806342966c68146102fb57610158565b806301ffc9a71461015d57806306fdde031461018d578063095ea7b3146101ab57806318160ddd146101db57806323b872dd146101f9578063248a9ca314610229575b600080fd5b61017760048036038101906101729190612009565b6104fb565b6040516101849190612372565b60405180910390f35b610195610575565b6040516101a291906123a8565b60405180910390f35b6101c560048036038101906101c09190611f2c565b610607565b6040516101d29190612372565b60405180910390f35b6101e361062a565b6040516101f0919061256a565b60405180910390f35b610213600480360381019061020e9190611edd565b610634565b6040516102209190612372565b60405180910390f35b610243600480360381019061023e9190611f68565b610663565b604051610250919061238d565b60405180910390f35b610273600480360381019061026e9190611f91565b610683565b005b61027d6106b7565b60405161028a9190612585565b60405180910390f35b6102ad60048036038101906102a89190611f91565b6106c0565b005b6102c960048036038101906102c49190611f2c565b6106f4565b6040516102d69190612372565b60405180910390f35b6102f960048036038101906102f49190611f2c565b61079e565b005b61031560048036038101906103109190612032565b61081c565b005b610331600480360381019061032c9190611e78565b610829565b60405161033e919061256a565b60405180910390f35b610361600480360381019061035c9190611fcd565b610871565b60405161036e9190612357565b60405180910390f35b610391600480360381019061038c9190611f91565b6108a0565b60405161039e9190612372565b60405180910390f35b6103af61090b565b6040516103bc91906123a8565b60405180910390f35b6103cd61099d565b6040516103da919061238d565b60405180910390f35b6103fd60048036038101906103f89190611f2c565b6109a4565b60405161040a9190612372565b60405180910390f35b61042d60048036038101906104289190611f2c565b610a8e565b60405161043a9190612372565b60405180910390f35b61045d60048036038101906104589190611f68565b610ab1565b60405161046a919061256a565b60405180910390f35b61047b610ad5565b604051610488919061238d565b60405180910390f35b6104ab60048036038101906104a69190611f91565b610af9565b005b6104c760048036038101906104c29190611ea1565b610b2d565b6040516104d4919061256a565b60405180910390f35b6104e5610bb4565b6040516104f2919061238d565b60405180910390f35b60007f5a05180f000000000000000000000000000000000000000000000000000000007bffffffffffffffffffffffffffffffffffffffffffffffffffffffff1916827bffffffffffffffffffffffffffffffffffffffffffffffffffffffff1916148061056e575061056d82610c16565b5b9050919050565b60606003805461058490612793565b80601f01602080910402602001604051908101604052809291908181526020018280546105b090612793565b80156105fd5780601f106105d2576101008083540402835291602001916105fd565b820191906000526020600020905b8154815290600101906020018083116105e057829003601f168201915b5050505050905090565b600080610612610c90565b905061061f818585610c98565b600191505092915050565b6000600254905090565b60008061063f610c90565b905061064c858285610e63565b610657858585610eef565b60019150509392505050565b600060056000838152602001908152602001600020600101549050919050565b61068d8282611170565b6106b28160066000858152602001908152602001600020610be690919063ffffffff16565b505050565b60006012905090565b6106ca8282611199565b6106ef816006600085815260200190815260200160002061121c90919063ffffffff16565b505050565b6000806106ff610c90565b9050610793818585600160008673ffffffffffffffffffffffffffffffffffffffff1673ffffffffffffffffffffffffffffffffffffffff16815260200190815260200160002060008973ffffffffffffffffffffffffffffffffffffffff1673ffffffffffffffffffffffffffffffffffffffff1681526020019081526020016000205461078e91906125c7565b610c98565b600191505092915050565b6107cf7f9f2df0fed2c77648de5860a4cc508cd0818c85b8b8a1ab4ceeef8d981c8956a66107ca610c90565b6108a0565b61080e576040517f08c379a00000000000000000000000000000000000000000000000000000000081526004016108059061248a565b60405180910390fd5b610818828261124c565b5050565b61082633826113ac565b50565b60008060008373ffffffffffffffffffffffffffffffffffffffff1673ffffffffffffffffffffffffffffffffffffffff168152602001908152602001600020549050919050565b6000610898826006600086815260200190815260200160002061158390919063ffffffff16565b905092915050565b60006005600084815260200190815260200160002060000160008373ffffffffffffffffffffffffffffffffffffffff1673ffffffffffffffffffffffffffffffffffffffff16815260200190815260200160002060009054906101000a900460ff16905092915050565b60606004805461091a90612793565b80601f016020809104026020016040519081016040528092919081815260200182805461094690612793565b80156109935780601f1061096857610100808354040283529160200191610993565b820191906000526020600020905b81548152906001019060200180831161097657829003601f168201915b5050505050905090565b6000801b81565b6000806109af610c90565b90506000600160008373ffffffffffffffffffffffffffffffffffffffff1673ffffffffffffffffffffffffffffffffffffffff16815260200190815260200160002060008673ffffffffffffffffffffffffffffffffffffffff1673ffffffffffffffffffffffffffffffffffffffff16815260200190815260200160002054905083811015610a75576040517f08c379a0000000000000000000000000000000000000000000000000000000008152600401610a6c9061250a565b60405180910390fd5b610a828286868403610c98565b60019250505092915050565b600080610a99610c90565b9050610aa6818585610eef565b600191505092915050565b6000610ace6006600084815260200190815260200160002061159d565b9050919050565b7f9f2df0fed2c77648de5860a4cc508cd0818c85b8b8a1ab4ceeef8d981c8956a681565b610b0382826115b2565b610b28816006600085815260200190815260200160002061121c90919063ffffffff16565b505050565b6000600160008473ffffffffffffffffffffffffffffffffffffffff1673ffffffffffffffffffffffffffffffffffffffff16815260200190815260200160002060008373ffffffffffffffffffffffffffffffffffffffff1673ffffffffffffffffffffffffffffffffffffffff16815260200190815260200160002054905092915050565b7f65d7a28e3265b37a6474929f336521b332c1681b933f6cb9f3376673440d862a81565b610be282826115db565b5050565b6000610c0e836000018373ffffffffffffffffffffffffffffffffffffffff1660001b6116bc565b905092915050565b60007f7965db0b000000000000000000000000000000000000000000000000000000007bffffffffffffffffffffffffffffffffffffffffffffffffffffffff1916827bffffffffffffffffffffffffffffffffffffffffffffffffffffffff19161480610c895750610c888261172c565b5b9050919050565b600033905090565b600073ffffffffffffffffffffffffffffffffffffffff168373ffffffffffffffffffffffffffffffffffffffff161415610d08576040517f08c379a0000000000000000000000000000000000000000000000000000000008152600401610cff906124ea565b60405180910390fd5b600073ffffffffffffffffffffffffffffffffffffffff168273ffffffffffffffffffffffffffffffffffffffff161415610d78576040517f08c379a0000000000000000000000000000000000000000000000000000000008152600401610d6f9061242a565b60405180910390fd5b80600160008573ffffffffffffffffffffffffffffffffffffffff1673ffffffffffffffffffffffffffffffffffffffff16815260200190815260200160002060008473ffffffffffffffffffffffffffffffffffffffff1673ffffffffffffffffffffffffffffffffffffffff168152602001908152602001600020819055508173ffffffffffffffffffffffffffffffffffffffff168373ffffffffffffffffffffffffffffffffffffffff167f8c5be1e5ebec7d5bd14f71427d1e84f3dd0314c0f7b2291e5b200ac8c7c3b92583604051610e56919061256a565b60405180910390a3505050565b6000610e6f8484610b2d565b90507fffffffffffffffffffffffffffffffffffffffffffffffffffffffffffffffff8114610ee95781811015610edb576040517f08c379a0000000000000000000000000000000000000000000000000000000008152600401610ed29061244a565b60405180910390fd5b610ee88484848403610c98565b5b50505050565b600073ffffffffffffffffffffffffffffffffffffffff168373ffffffffffffffffffffffffffffffffffffffff161415610f5f576040517f08c379a0000000000000000000000000000000000000000000000000000000008152600401610f56906124ca565b60405180910390fd5b600073ffffffffffffffffffffffffffffffffffffffff168273ffffffffffffffffffffffffffffffffffffffff161415610fcf576040517f08c379a0000000000000000000000000000000000000000000000000000000008152600401610fc6906123ea565b60405180910390fd5b610fda838383611796565b60008060008573ffffffffffffffffffffffffffffffffffffffff1673ffffffffffffffffffffffffffffffffffffffff16815260200190815260200160002054905081811015611060576040517f08c379a00000000000000000000000000000000000000000000000000000000081526004016110579061246a565b60405180910390fd5b8181036000808673ffffffffffffffffffffffffffffffffffffffff1673ffffffffffffffffffffffffffffffffffffffff16815260200190815260200160002081905550816000808573ffffffffffffffffffffffffffffffffffffffff1673ffffffffffffffffffffffffffffffffffffffff16815260200190815260200160002060008282546110f391906125c7565b925050819055508273ffffffffffffffffffffffffffffffffffffffff168473ffffffffffffffffffffffffffffffffffffffff167fddf252ad1be2c89b69c2b068fc378daa952ba7f163c4a11628f55a4df523b3ef84604051611157919061256a565b60405180910390a361116a84848461179b565b50505050565b61117982610663565b61118a81611185610c90565b6117a0565b61119483836115db565b505050565b6111a1610c90565b73ffffffffffffffffffffffffffffffffffffffff168173ffffffffffffffffffffffffffffffffffffffff161461120e576040517f08c379a00000000000000000000000000000000000000000000000000000000081526004016112059061252a565b60405180910390fd5b611218828261183d565b5050565b6000611244836000018373ffffffffffffffffffffffffffffffffffffffff1660001b61191f565b905092915050565b600073ffffffffffffffffffffffffffffffffffffffff168273ffffffffffffffffffffffffffffffffffffffff1614156112bc576040517f08c379a00000000000000000000000000000000000000000000000000000000081526004016112b39061254a565b60405180910390fd5b6112c860008383611796565b80600260008282546112da91906125c7565b92505081905550806000808473ffffffffffffffffffffffffffffffffffffffff1673ffffffffffffffffffffffffffffffffffffffff168152602001908152602001600020600082825461132f91906125c7565b925050819055508173ffffffffffffffffffffffffffffffffffffffff16600073ffffffffffffffffffffffffffffffffffffffff167fddf252ad1be2c89b69c2b068fc378daa952ba7f163c4a11628f55a4df523b3ef83604051611394919061256a565b60405180910390a36113a86000838361179b565b5050565b600073ffffffffffffffffffffffffffffffffffffffff168273ffffffffffffffffffffffffffffffffffffffff16141561141c576040517f08c379a0000000000000000000000000000000000000000000000000000000008152600401611413906124aa565b60405180910390fd5b61142882600083611796565b60008060008473ffffffffffffffffffffffffffffffffffffffff1673ffffffffffffffffffffffffffffffffffffffff168152602001908152602001600020549050818110156114ae576040517f08c379a00000000000000000000000000000000000000000000000000000000081526004016114a59061240a565b60405180910390fd5b8181036000808573ffffffffffffffffffffffffffffffffffffffff1673ffffffffffffffffffffffffffffffffffffffff1681526020019081526020016000208190555081600260008282546115059190612677565b92505081905550600073ffffffffffffffffffffffffffffffffffffffff168373ffffffffffffffffffffffffffffffffffffffff167fddf252ad1be2c89b69c2b068fc378daa952ba7f163c4a11628f55a4df523b3ef8460405161156a919061256a565b60405180910390a361157e8360008461179b565b505050565b60006115928360000183611aa5565b60001c905092915050565b60006115ab82600001611af6565b9050919050565b6115bb82610663565b6115cc816115c7610c90565b6117a0565b6115d6838361183d565b505050565b6115e582826108a0565b6116b85760016005600084815260200190815260200160002060000160008373ffffffffffffffffffffffffffffffffffffffff1673ffffffffffffffffffffffffffffffffffffffff16815260200190815260200160002060006101000a81548160ff02191690831515021790555061165d610c90565b73ffffffffffffffffffffffffffffffffffffffff168173ffffffffffffffffffffffffffffffffffffffff16837f2f8788117e7eff1d82e926ec794901d17c78024a50270940304540a733656f0d60405160405180910390a45b5050565b60006116c88383611b07565b611721578260000182908060018154018082558091505060019003906000526020600020016000909190919091505582600001805490508360010160008481526020019081526020016000208190555060019050611726565b600090505b92915050565b60007f01ffc9a7000000000000000000000000000000000000000000000000000000007bffffffffffffffffffffffffffffffffffffffffffffffffffffffff1916827bffffffffffffffffffffffffffffffffffffffffffffffffffffffff1916149050919050565b505050565b505050565b6117aa82826108a0565b611839576117cf8173ffffffffffffffffffffffffffffffffffffffff166014611b2a565b6117dd8360001c6020611b2a565b6040516020016117ee92919061231d565b6040516020818303038152906040526040517f08c379a000000000000000000000000000000000000000000000000000000000815260040161183091906123a8565b60405180910390fd5b5050565b61184782826108a0565b1561191b5760006005600084815260200190815260200160002060000160008373ffffffffffffffffffffffffffffffffffffffff1673ffffffffffffffffffffffffffffffffffffffff16815260200190815260200160002060006101000a81548160ff0219169083151502179055506118c0610c90565b73ffffffffffffffffffffffffffffffffffffffff168173ffffffffffffffffffffffffffffffffffffffff16837ff6391f5c32d9c69d2a47ea670b442974b53935d1edc7fd64eb21e047a839171b60405160405180910390a45b5050565b60008083600101600084815260200190815260200160002054905060008114611a995760006001826119519190612677565b90506000600186600001805490506119699190612677565b9050818114611a245760008660000182815481106119b0577f4e487b7100000000000000000000000000000000000000000000000000000000600052603260045260246000fd5b90600052602060002001549050808760000184815481106119fa577f4e487b7100000000000000000000000000000000000000000000000000000000600052603260045260246000fd5b90600052602060002001819055508387600101600083815260200190815260200160002081905550505b85600001805480611a5e577f4e487b7100000000000000000000000000000000000000000000000000000000600052603160045260246000fd5b600190038181906000526020600020016000905590558560010160008681526020019081526020016000206000905560019350505050611a9f565b60009150505b92915050565b6000826000018281548110611ae3577f4e487b7100000000000000000000000000000000000000000000000000000000600052603260045260246000fd5b9060005260206000200154905092915050565b600081600001805490509050919050565b600080836001016000848152602001908152602001600020541415905092915050565b606060006002836002611b3d919061261d565b611b4791906125c7565b67ffffffffffffffff811115611b86577f4e487b7100000000000000000000000000000000000000000000000000000000600052604160045260246000fd5b6040519080825280601f01601f191660200182016040528015611bb85781602001600182028036833780820191505090505b5090507f300000000000000000000000000000000000000000000000000000000000000081600081518110611c16577f4e487b7100000000000000000000000000000000000000000000000000000000600052603260045260246000fd5b60200101907effffffffffffffffffffffffffffffffffffffffffffffffffffffffffffff1916908160001a9053507f780000000000000000000000000000000000000000000000000000000000000081600181518110611ca0577f4e487b7100000000000000000000000000000000000000000000000000000000600052603260045260246000fd5b60200101907effffffffffffffffffffffffffffffffffffffffffffffffffffffffffffff1916908160001a90535060006001846002611ce0919061261d565b611cea91906125c7565b90505b6001811115611dd6577f3031323334353637383961626364656600000000000000000000000000000000600f861660108110611d52577f4e487b7100000000000000000000000000000000000000000000000000000000600052603260045260246000fd5b1a60f81b828281518110611d8f577f4e487b7100000000000000000000000000000000000000000000000000000000600052603260045260246000fd5b60200101907effffffffffffffffffffffffffffffffffffffffffffffffffffffffffffff1916908160001a905350600485901c945080611dcf90612769565b9050611ced565b5060008414611e1a576040517f08c379a0000000000000000000000000000000000000000000000000000000008152600401611e11906123ca565b60405180910390fd5b8091505092915050565b600081359050611e3381612c17565b92915050565b600081359050611e4881612c2e565b92915050565b600081359050611e5d81612c45565b92915050565b600081359050611e7281612c5c565b92915050565b600060208284031215611e8a57600080fd5b6000611e9884828501611e24565b91505092915050565b60008060408385031215611eb457600080fd5b6000611ec285828601611e24565b9250506020611ed385828601611e24565b9150509250929050565b600080600060608486031215611ef257600080fd5b6000611f0086828701611e24565b9350506020611f1186828701611e24565b9250506040611f2286828701611e63565b9150509250925092565b60008060408385031215611f3f57600080fd5b6000611f4d85828601611e24565b9250506020611f5e85828601611e63565b9150509250929050565b600060208284031215611f7a57600080fd5b6000611f8884828501611e39565b91505092915050565b60008060408385031215611fa457600080fd5b6000611fb285828601611e39565b9250506020611fc385828601611e24565b9150509250929050565b60008060408385031215611fe057600080fd5b6000611fee85828601611e39565b9250506020611fff85828601611e63565b9150509250929050565b60006020828403121561201b57600080fd5b600061202984828501611e4e565b91505092915050565b60006020828403121561204457600080fd5b600061205284828501611e63565b91505092915050565b612064816126ab565b82525050565b612073816126bd565b82525050565b612082816126c9565b82525050565b6000612093826125a0565b61209d81856125ab565b93506120ad818560208601612736565b6120b681612823565b840191505092915050565b60006120cc826125a0565b6120d681856125bc565b93506120e6818560208601612736565b80840191505092915050565b60006120ff6020836125ab565b915061210a82612834565b602082019050919050565b60006121226023836125ab565b915061212d8261285d565b604082019050919050565b60006121456022836125ab565b9150612150826128ac565b604082019050919050565b60006121686022836125ab565b9150612173826128fb565b604082019050919050565b600061218b601d836125ab565b91506121968261294a565b602082019050919050565b60006121ae6026836125ab565b91506121b982612973565b604082019050919050565b60006121d16036836125ab565b91506121dc826129c2565b604082019050919050565b60006121f46021836125ab565b91506121ff82612a11565b604082019050919050565b60006122176025836125ab565b915061222282612a60565b604082019050919050565b600061223a6024836125ab565b915061224582612aaf565b604082019050919050565b600061225d6017836125bc565b915061226882612afe565b601782019050919050565b60006122806025836125ab565b915061228b82612b27565b604082019050919050565b60006122a36011836125bc565b91506122ae82612b76565b601182019050919050565b60006122c6602f836125ab565b91506122d182612b9f565b604082019050919050565b60006122e9601f836125ab565b91506122f482612bee565b602082019050919050565b6123088161271f565b82525050565b61231781612729565b82525050565b600061232882612250565b915061233482856120c1565b915061233f82612296565b915061234b82846120c1565b91508190509392505050565b600060208201905061236c600083018461205b565b92915050565b6000602082019050612387600083018461206a565b92915050565b60006020820190506123a26000830184612079565b92915050565b600060208201905081810360008301526123c28184612088565b905092915050565b600060208201905081810360008301526123e3816120f2565b9050919050565b6000602082019050818103600083015261240381612115565b9050919050565b6000602082019050818103600083015261242381612138565b9050919050565b600060208201905081810360008301526124438161215b565b9050919050565b600060208201905081810360008301526124638161217e565b9050919050565b60006020820190508181036000830152612483816121a1565b9050919050565b600060208201905081810360008301526124a3816121c4565b9050919050565b600060208201905081810360008301526124c3816121e7565b9050919050565b600060208201905081810360008301526124e38161220a565b9050919050565b600060208201905081810360008301526125038161222d565b9050919050565b6000602082019050818103600083015261252381612273565b9050919050565b60006020820190508181036000830152612543816122b9565b9050919050565b60006020820190508181036000830152612563816122dc565b9050919050565b600060208201905061257f60008301846122ff565b92915050565b600060208201905061259a600083018461230e565b92915050565b600081519050919050565b600082825260208201905092915050565b600081905092915050565b60006125d28261271f565b91506125dd8361271f565b9250827fffffffffffffffffffffffffffffffffffffffffffffffffffffffffffffffff03821115612612576126116127c5565b5b828201905092915050565b60006126288261271f565b91506126338361271f565b9250817fffffffffffffffffffffffffffffffffffffffffffffffffffffffffffffffff048311821515161561266c5761266b6127c5565b5b828202905092915050565b60006126828261271f565b915061268d8361271f565b9250828210156126a05761269f6127c5565b5b828203905092915050565b60006126b6826126ff565b9050919050565b60008115159050919050565b6000819050919050565b60007fffffffff0000000000000000000000000000000000000000000000000000000082169050919050565b600073ffffffffffffffffffffffffffffffffffffffff82169050919050565b6000819050919050565b600060ff82169050919050565b60005b83811015612754578082015181840152602081019050612739565b83811115612763576000848401525b50505050565b60006127748261271f565b91506000821415612788576127876127c5565b5b600182039050919050565b600060028204905060018216806127ab57607f821691505b602082108114156127bf576127be6127f4565b5b50919050565b7f4e487b7100000000000000000000000000000000000000000000000000000000600052601160045260246000fd5b7f4e487b7100000000000000000000000000000000000000000000000000000000600052602260045260246000fd5b6000601f19601f8301169050919050565b7f537472696e67733a20686578206c656e67746820696e73756666696369656e74600082015250565b7f45524332303a207472616e7366657220746f20746865207a65726f206164647260008201527f6573730000000000000000000000000000000000000000000000000000000000602082015250565b7f45524332303a206275726e20616d6f756e7420657863656564732062616c616e60008201527f6365000000000000000000000000000000000000000000000000000000000000602082015250565b7f45524332303a20617070726f766520746f20746865207a65726f20616464726560008201527f7373000000000000000000000000000000000000000000000000000000000000602082015250565b7f45524332303a20696e73756666696369656e7420616c6c6f77616e6365000000600082015250565b7f45524332303a207472616e7366657220616d6f756e742065786365656473206260008201527f616c616e63650000000000000000000000000000000000000000000000000000602082015250565b7f45524332305072657365744d696e7465725061757365723a206d75737420686160008201527f7665206d696e74657220726f6c6520746f206d696e7400000000000000000000602082015250565b7f45524332303a206275726e2066726f6d20746865207a65726f2061646472657360008201527f7300000000000000000000000000000000000000000000000000000000000000602082015250565b7f45524332303a207472616e736665722066726f6d20746865207a65726f20616460008201527f6472657373000000000000000000000000000000000000000000000000000000602082015250565b7f45524332303a20617070726f76652066726f6d20746865207a65726f2061646460008201527f7265737300000000000000000000000000000000000000000000000000000000602082015250565b7f416363657373436f6e74726f6c3a206163636f756e7420000000000000000000600082015250565b7f45524332303a2064656372656173656420616c6c6f77616e63652062656c6f7760008201527f207a65726f000000000000000000000000000000000000000000000000000000602082015250565b7f206973206d697373696e6720726f6c6520000000000000000000000000000000600082015250565b7f416363657373436f6e74726f6c3a2063616e206f6e6c792072656e6f756e636560008201527f20726f6c657320666f722073656c660000000000000000000000000000000000602082015250565b7f45524332303a206d696e7420746f20746865207a65726f206164647265737300600082015250565b612c20816126ab565b8114612c2b57600080fd5b50565b612c37816126c9565b8114612c4257600080fd5b50565b612c4e816126d3565b8114612c5957600080fd5b50565b612c658161271f565b8114612c7057600080fd5b5056fea26469706673582212201ddaf9e80b17663bf29991de853c72aef130822123329c3baa12445f48ba47ad64736f6c63430008040033",
  "linkReferences": {},
  "deployedLinkReferences": {}
}